:020000040800F2
:1000000000000820692E0008DD2B0008E52B000801
:10001000ED2B0008F52B0008FD2B00080000000068
:10002000000000000000000000000000052C000897
:10003000132C000800000000212C00082F2C0008C1
:10004000B92E0008B92E0008B92E0008B92E0008F4
:10005000B92E0008B92E0008B92E0008B92E0008E4
:10006000B92E0008B92E0008B92E0008B92E0008D4
:100070003F2C0008B92E0008B92E0008B92E000840
:10008000B92E0008B92E0008B92E0008B92E0008B4
:10009000B92E0008B92E0008B92E0008B92E0008A4
:1000A000B92E000875570008B92E0008B92E0008AF
:1000B000B92E0008B92E0008B92E0008B92E000884
:1000C000B92E0008B92E0008B92E0008B92E000874
:1000D000B92E0008B92E0008B92E0008B92E000864
:1000E000B92E0008B92E0008B92E0008B92E000854
:1000F000B92E0008B92E0008B92E0008B92E000844
:10010000B92E0008B92E0008B92E0008B92E000833
:10011000B92E0008B92E0008B92E0008B92E000823
:100120004D2C0008B92E0008B92E0008B92E000881
:10013000B92E0008B92E0008B92E0008B92E000803
:10014000B92E0008B92E0008B92E0008B92E0008F3
:10015000612C0008712C0008B92E0008AD2C000895
:10016000B92E0008B92E0008B92E0008B92E0008D3
:10017000B92E0008B92E0008B92E000800000000B2
:10018000B92E0008B92E0008B92E0008B92E0008B3
:10019000B92E0008B92E0008B92E0008B92E0008A3
:1001A0000000000000000000B92E0008B92E000871
:1001B000B92E0008B92E0008B92E0008B92E000883
:1001C000B92E0008B92E000800000000B92E000862
:1001D000B92E0008B92E0008B92E0008B92E000863
:1001E000B92E0008B92E0008B92E0008B92E000853
:0801F00000000000B92E000818
:1002000010B5054C237833B9044B13B10448AFF350
:1002100000800123237010BD244300200000000053
:10022000B4EF000808B5034B1BB103490348AFF313
:10023000008008BD0000000028430020B4EF000843
:1002400010F8012B11F8013B012A28BF9A42F7D080
:10025000D01A7047000000000000000000000000FD
:1002600001F0FF01102A2BDB10F0070F08D010F867
:10027000013B013A8B422DD010F0070F42B3F6D16B
:10028000F0B441EA012141EA014122F007047FF084
:1002900000070023F0E80256083C85EA010586EADB
:1002A000010685FA47F5A3FA87F586FA47F6A5FA17
:1002B00087F68EB9EED1F0BC01F0FF0102F0070223
:1002C00032B110F8013B013A83EA010313B1F8D1CE
:1002D0000020704701387047002D06BF35460338AF
:1002E000073815F0010F07D1013015F4807F02BFE8
:1002F000013015F4C03F0130F0BC0138704700BF39
:10030000034613F8012B002AFBD1181A0138704755
:100310007BB972B90029BEBF00204FF0004106E052
:1003200008BF00281CBF6FF000414FF0FF3000F005
:10033000BBB9ADF1080C6DE904CE002909DB002B37
:100340001ADB00F035F8DDF804E0DDE9022304B043
:100350007047404261EB4101002B1BDB00F028F8A5
:10036000DDF804E0DDE9022304B0404261EB410125
:10037000524263EB43037047524263EB430300F086
:1003800017F8DDF804E0DDE9022304B0404261EB38
:1003900041017047524263EB430300F009F8DDF876
:1003A00004E0DDE9022304B0524263EB43037047EB
:1003B0002DE9F047089D8E4604468846002B4AD119
:1003C0008A42174662D9B2FA82F64EB1C6F12003CC
:1003D00001FA06F820FA03F3B74043EA0808B440EC
:1003E0004FEA174E1FFA87FCB8FBFEF1230C0EFBF9
:1003F000118843EA084301FB0CF29A4209D9FB1821
:1004000001F1FF3080F0EA809A4240F2E780023941
:100410003B449A1AA3B2B2FBFEF00EFB102243EA51
:10042000024300FB0CFC9C4509D9FB1800F1FF328C
:1004300080F0D6809C4540F2D3803B44023840EAAD
:100440000140A3EB0C0300211DB1F3400022C5E9DC
:100450000032BDE8F0878B4205D90DB1C5E9000136
:1004600000210846F5E7B3FA83F1002946D1734528
:1004700002D3824200F20581841A6EEB030201204E
:100480009046002DE5D0C5E90048E2E7002A00F0DB
:100490009080B2FA82F6002E40F0A4808A1A030CF3
:1004A0004FEA174E80B2BCB20121B2FBFEFC0EFB3C
:1004B0001C2243EA024304FB0CF29A4207D9FB18C0
:1004C0000CF1FF3802D29A4200F2E080C4469B1A37
:1004D000B3FBFEF20EFB123340EA034302FB04F4CB
:1004E0009C4207D9FB1802F1FF3002D29C4200F275
:1004F000CA8002461B1B42EA0C40A5E7C1F1200658
:100500008B4022FA06F71F430EFA01F420FA06F395
:100510002EFA06FE4FEA1749234300FA01F81FFAA4
:1005200087FCBEFBF9F01C0C09FB10EE44EA0E44FC
:1005300000FB0CFEA64502FA01F209D93C1900F1B4
:10054000FF3A80F09C80A64540F2998002383C44F6
:10055000A4EB0E041FFA83FEB4FBF9F309FB13446A
:100560004EEA044403FB0CFCA44508D93C1903F1F2
:10057000FF3E80F08280A4457FD9023B3C4443EAA1
:100580000040A4EB0C04A0FB02EC64457346E1467A
:1005900062D35FD05DB1B8EB030264EB090404FAE7
:1005A00006F622FA01F31E43CC40C5E9006400219F
:1005B0004FE7B1FBF2FC010C41EA0E4180B240EA88
:1005C00001423B4638463C46B846BE462026B1FB73
:1005D000F7F1A2EB080241EA0C4166E7014618E791
:1005E00010462CE7C6F120022EFA02F3B740B140C4
:1005F00020FA02F24FEA174E0A43B3FBFEF8BCB2F0
:100600000EFB1833110C41EA034108FB04F9B0401A
:1006100089454FEA104380B23ED9791808F1FF3C72
:1006200001D289451FD8A1EB0901B1FBFEF909FBF5
:1006300004F80EFB191192B242EA0142424529D256
:10064000BA1809F1FF31C4D24245C2D2A9F1020160
:100650003A44BEE7F0459DD2BEEB02036CEB070CBB
:100660000138E14696E7A7EB09094944A8F1020CD5
:10067000B1FBFEF909FB04F8DBE773467FE7504660
:1006800066E70846FDE63B44023A33E7ACF1020C6C
:100690003B441CE749469CE7A1EB0901C446B1FB7A
:1006A000FEF909FB04F8C4E7704700BF80B400AF4F
:1006B000044BDB681B0A03F007031846BD465DF8D0
:1006C000047B704700ED00E080B483B000AF0346C8
:1006D000FB7197F90730002B0BDBFB7903F01F024E
:1006E000074997F907305B09012000FA02F241F847
:1006F000232000BF0C37BD465DF8047B704700BF68
:1007000000E100E080B483B000AF03463960FB71C4
:1007100097F90730002B0ADB3B68DAB20C4997F9EE
:1007200007301201D2B20B4483F800230AE03B6881
:10073000DAB20849FB7903F00F03043B1201D2B28D
:100740000B441A7600BF0C37BD465DF8047B70473A
:1007500000E100E000ED00E080B489B000AFF86097
:10076000B9607A60FB6803F00703FB61FB69C3F1C2
:100770000703042B28BF0423BB61FB690433062B4A
:1007800002D9FB69033B00E000237B614FF0FF329D
:10079000BB6902FA03F3DA43BB681A407B699A40EB
:1007A0004FF0FF317B6901FA03F3D9437B680B40BB
:1007B000134318462437BD465DF8047B704700009C
:1007C00080B485B000AFF860B9607A600D4ABB684C
:1007D00013441B781A46FB6813441B6823F0C002BD
:1007E0000849BB680B441B781946FB680B44194643
:1007F0007B6813430B6000BF1437BD465DF8047B74
:10080000704700BF9002010880B485B000AFF86067
:10081000B9607A600D4ABB6813441B781A46FB68BE
:1008200013441B6823F490720849BB680B441B787F
:100830001946FB680B4419467B6813430B6000BFE5
:100840001437BD465DF8047B704700BF9002010875
:1008500080B485B000AFF860B9607A600D4ABB68BB
:1008600013441B781A46FB6813441B6823F4007278
:100870000849BB680B441B781946FB680B441946B2
:100880007B6813430B6000BF1437BD465DF8047BE3
:10089000704700BF9002010880B485B000AFF860D7
:1008A000B9607A600D4ABB6813441B781A46FB682E
:1008B00013441B6823F480620849BB680B441B780F
:1008C0001946FB680B4419467B6813430B6000BF55
:1008D0001437BD465DF8047B704700BF90020108E5
:1008E00080B485B000AFF860B9607A600D4ABB682B
:1008F00013441B781A46FB6813441B6823F4C05248
:100900000849BB680B441B781946FB680B44194621
:100910007B6813430B6000BF1437BD465DF8047B52
:10092000704700BF9002010880B485B000AFF86046
:10093000B9607A600D4ABB6813441B781A46FB689D
:1009400013441B6823F4C0420849BB680B441B785E
:100950001946FB680B4419467B6813430B6000BFC4
:100960001437BD465DF8047B704700BF9002010854
:1009700080B485B000AFF860B9607A600D4ABB689A
:1009800013441B781A46FB6813441B6823F4403257
:100990000849BB680B441B781946FB680B44194691
:1009A0007B6813430B6000BF1437BD465DF8047BC2
:1009B000704700BF9002010880B485B000AFF860B6
:1009C000B9607A600D4ABB6813441B781A46FB680D
:1009D00013441B6823F0F0520849BB680B441B7892
:1009E0001946FB680B4419467B6813430B6000BF34
:1009F0001437BD465DF8047B704700BF90020108C4
:100A000080B483B000AF786039600C4A3B6813440F
:100A10001B781A467B6813445B6908493A680A44A4
:100A2000127811467A680A4423F00403536100BF28
:100A30000C37BD465DF8047B704700BF900201088B
:100A400080B483B000AF78607B681B6843F001021C
:100A50007B681A6000BF0C37BD465DF8047B7047A9
:100A600080B483B000AF78607B681B6823F40032E9
:100A70007B681A6000BF0C37BD465DF8047B704789
:100A800080B483B000AF78607B681B6823F40022D9
:100A90007B681A6000BF0C37BD465DF8047B704769
:100AA00080B485B000AFF860B9607A60FB68DA683E
:100AB000064B1340B9687A680A431A43FB68DA6048
:100AC00000BF1437BD465DF8047B704701F8FFFF97
:100AD00080B483B000AF78607B68DB6823F40042A9
:100AE0007B68DA6000BF0C37BD465DF8047B704759
:100AF00080B483B000AF78607B685B6843F00072BD
:100B00007B685A6000BF0C37BD465DF8047B7047B8
:100B100080B400AF054B1B68044A43F48033136074
:100B200000BFBD465DF8047B704700BF003802403F
:100B300080B400AF074B1B6803F40033B3F5003FEC
:100B40000CBF01230023DBB21846BD465DF8047BD1
:100B5000704700BF0038024080B483B000AF7860B7
:100B6000064B9B6823F0030204497B6813438B60A8
:100B700000BF0C37BD465DF8047B7047003802406B
:100B800080B400AF044B9B6803F00C031846BD46CD
:100B90005DF8047B704700BF0038024080B483B02A
:100BA00000AF7860064B9B6823F0F00204497B6835
:100BB00013438B6000BF0C37BD465DF8047B704764
:100BC0000038024080B483B000AF7860064B9B6869
:100BD00023F4E05204497B6813438B6000BF0C3759
:100BE000BD465DF8047B70470038024080B483B096
:100BF00000AF7860064B9B6823F4604204497B6831
:100C000013438B6000BF0C37BD465DF8047B704713
:100C10000038024080B483B000AF7860094BD3F84D
:100C200090207B681B0CDB431A407B689BB2054914
:100C30001343C1F8903000BF0C37BD465DF8047B0C
:100C4000704700BF0038024080B483B000AF7860C6
:100C5000094BD3F890207B681B0CDB431A407B6860
:100C60009BB205491343C1F8903000BF0C37BD4615
:100C70005DF8047B704700BF0038024080B483B049
:100C800000AF7860094BD3F890207968084B0B408F
:100C9000DB431A407B681B0404491343C1F89030BE
:100CA00000BF0C37BD465DF8047B7047003802403A
:100CB0000000FFFF80B483B000AF7860074BD3F82B
:100CC0008C3023F0807205497B681343C1F88C3067
:100CD00000BF0C37BD465DF8047B7047003802400A
:100CE00080B400AF054B1B68044A43F08073136067
:100CF00000BFBD465DF8047B704700BF003802406E
:100D000080B400AF074B1B6803F00073B3F1007FA2
:100D10000CBF01230023DBB21846BD465DF8047BFF
:100D2000704700BF0038024080B485B000AFF86063
:100D3000B9607A603B600A4B5A680A4B1340F96805
:100D4000BA6811437A68920111433A680A43044928
:100D500013434B6000BF1437BD465DF8047B7047FA
:100D6000003802400080BCFF80B485B000AF7860DE
:100D7000084B1A6B07497B6813430B63054B1A6BCF
:100D80007B681340FB60FB6800BF1437BD465DF80D
:100D9000047B70470038024080B485B000AF7860B3
:100DA000084B1A6C07497B6813430B64054B1A6C9C
:100DB0007B681340FB60FB6800BF1437BD465DF8DD
:100DC000047B70470038024080B485B000AF786083
:100DD000084B5A6C07497B6813434B64054B5A6CAC
:100DE0007B681340FB60FB6800BF1437BD465DF8AD
:100DF000047B70470038024080B483B000AF786055
:100E0000064B1B6823F00F0204497B6813430B60F9
:100E100000BF0C37BD465DF8047B7047003C0240C4
:100E200080B400AF044B1B6803F00F031846BD46A7
:100E30005DF8047B704700BF003C024080B400AF07
:100E4000054B1B68044A43F48033136000BFBD4662
:100E50005DF8047B704700BF0070004080B483B031
:100E600000AF7860064B1B6823F4404204497B685E
:100E700013430B6000BF0C37BD465DF8047B704721
:100E80000070004080B400AF074B5B6803F4804300
:100E9000B3F5804F0CBF01230023DBB21846BD46DB
:100EA0005DF8047B704700BF0070004080B483B0E1
:100EB00000AF78607B681B6843F040027B681A6073
:100EC00000BF0C37BD465DF8047B704780B483B02B
:100ED00000AF786039607B685B6823F010023B6884
:100EE0001A437B685A6000BF0C37BD465DF8047B2F
:100EF000704780B483B000AF78607B685B6843F074
:100F000008027B685A6000BF0C37BD465DF8047B61
:100F1000704780B483B000AF78607B685B6823F073
:100F200008027B685A6000BF0C37BD465DF8047B41
:100F3000704780B483B000AF78607B681B6823F093
:100F400080027B681A6000BF0C37BD465DF8047BE9
:100F50007047000080B485B000AF786039603B68AE
:100F6000012B28D03B68042B23D03B68102B1ED0CC
:100F70003B68402B19D03B68B3F5807F13D03B68AA
:100F8000B3F5806F0DD03B68B3F5805F07D03B6849
:100F9000B3F5803F01D107230EE008230CE00623C0
:100FA0000AE0052308E0042306E0032304E002230B
:100FB00002E0012300E00023FB737B68183319462D
:100FC000FB7B0B4AD35C0B44BB60BB681A68FB7BA2
:100FD0000849CB5C194604238B40DB431A40BB68AD
:100FE0001A6000BF1437BD465DF8047B704700BF30
:100FF00098020108A402010880B485B000AF7860AF
:1010000039603B68012B28D03B68042B23D03B6818
:10101000102B1ED03B68402B19D03B68B3F5807F66
:1010200013D03B68B3F5806F0DD03B68B3F5805F9C
:1010300007D03B68B3F5803F01D107230EE00823BA
:101040000CE006230AE0052308E0042306E003235E
:1010500004E0022302E0012300E00023FB737B682D
:1010600018331946FB7B0A4AD35C0B44BB60BB6850
:101070001A68FB7B0749CB5C194608238B401A434F
:10108000BB681A6000BF1437BD465DF8047B70472B
:1010900098020108A402010880B483B000AF786010
:1010A00039607B689A68064B13403A681A437B683C
:1010B0009A6000BF0C37BD465DF8047B704700BFE7
:1010C000F8BFFEFF80B483B000AF786039607B6802
:1010D0005B6823F070023B681A437B685A6000BF6C
:1010E0000C37BD465DF8047B704780B483B000AF19
:1010F00078607B689B6823F080027B689A6000BF01
:101100000C37BD465DF8047B704780B483B000AFF8
:1011100078607B681B6843F001027B681A6000BF3F
:101120000C37BD465DF8047B704780B483B000AFD8
:10113000786039607B681B6823F4F8123B681B04F5
:101140001A437B681A6000BF0C37BD465DF8047B0C
:10115000704780B483B000AF786039607B681B68EB
:1011600023F078723B685B051A437B681A6000BF06
:101170000C37BD465DF8047B704780B483B000AF88
:1011800078607B689B6843F480427B689A6000BF0C
:101190000C37BD465DF8047B704780B483B000AF68
:1011A000786039607B689B6823F400423B681A438F
:1011B0007B689A6000BF0C37BD465DF8047B7047C2
:1011C00080B483B000AF78607B685B6823F49042A2
:1011D0007B685A607B689B6823F02A027B689A6070
:1011E00000BF0C37BD465DF8047B704780B483B008
:1011F00000AF786039607B683A689A6100BF0C374D
:10120000BD465DF8047B704780B483B000AF786062
:1012100039603B681A047B689A6100BF0C37BD4691
:101220005DF8047B704780B500AF07F08BFE00F0DF
:101230002BF801F0A7F801F061F800F0D1F900F007
:1012400043FA00F0B5FA00F03FFB00F0EFFB00F0CE
:101250006FF800F069FC00F015FE00F0EDFE00F004
:10126000E1FC00F04FFF00F0D5FF00F015F900F0B1
:1012700065F900F0B3FD01F020FE01F02AFE01F057
:1012800038FE00BFFDE7000080B500AF0620FFF785
:10129000B3FD00BFFFF7C4FD0346062BFAD14FF4A0
:1012A0004040FFF7DBFDFFF7C9FDFFF731FC00BF52
:1012B000FFF73EFC0346012BFAD10023C0220C218C
:1012C0004FF48000FFF730FDFFF70AFD00BFFFF786
:1012D00017FD0346012BFAD100BFFFF7D3FD0346EC
:1012E000002BFAD00020FFF759FC4FF4A050FFF775
:1012F00069FC4FF40040FFF779FC0220FFF72CFC5B
:1013000000BFFFF73DFC0346082BFAD107480AF05F
:1013100029FF0F2007F024FE0346002B01D001F027
:10132000E7FA0020FFF7C6FC00BF80BD00C2EB0B50
:1013300080B584B000AF3B4600221A605A609A60C4
:10134000DA60524B524A1A60504B4FF480325A6066
:101350004E4B00229A604D4B01221A614B4B0022EA
:101360009A614A4B002283F82020484B0022DA621F
:10137000464B484A9A62454B0022DA60434B0822AA
:10138000DA61424B012283F83020404B00225A613F
:101390003E4807F035FE0346002B01D001F0A8FAC5
:1013A0000A233B6001237B600123BB603B46194657
:1013B000364807F077FF0346002B01D001F098FA7A
:1013C0000B233B6002237B603B4619462F4807F006
:1013D00069FF0346002B01D001F08AFA0C233B6021
:1013E00003237B603B461946284807F05BFF034612
:1013F000002B01D001F07CFA0D233B6004237B60BD
:101400003B461946214807F04DFF0346002B01D00B
:1014100001F06EFA0E233B6005237B603B461946C4
:101420001A4807F03FFF0346002B01D001F060FA95
:101430000F233B6006237B603B461946134807F0A9
:1014400031FF0346002B01D001F052FA08233B6024
:1014500007237B603B4619460C4807F023FF0346F1
:10146000002B01D001F044FA09233B6008237B6084
:101470003B461946054807F015FF0346002B01D0EF
:1014800001F036FA00BF1037BD4680BD4043002052
:10149000002001400100000F80B584B000AF3B4642
:1014A00000221A605A609A60DA60214B214A1A6061
:1014B0001F4B4FF480325A601D4B00229A601C4B28
:1014C00000221A611A4B00229A61194B002283F8FC
:1014D0002020174B0022DA62154B174A9A62144BF0
:1014E0000022DA60124B0122DA61114B002283F8EC
:1014F00030200F4B01225A610D4807F081FD034651
:10150000002B01D001F0F4F902233B6001237B6042
:101510000023BB603B461946054807F0C3FE03465F
:10152000002B01D001F0E4F900BF1037BD4680BDAB
:1015300088430020002101400100000F80B584B0E5
:1015400000AF3B4600221A605A609A60DA60214B75
:10155000214A1A601F4B4FF480325A601D4B002203
:101560009A601C4B00221A611A4B00229A61194B97
:10157000002283F82020174B0022DA62154B174A0D
:101580009A62144B0022DA60124B0122DA61114B8D
:10159000002283F830200F4B01225A610D4807F0DA
:1015A0002FFD0346002B01D001F0A2F901233B607F
:1015B00001237B600023BB603B461946054807F0CA
:1015C00071FE0346002B01D001F092F900BF1037E5
:1015D000BD4680BDD0430020002201400100000F25
:1015E00080B58EB000AF07F11C0300221A605A606C
:1015F0009A60DA601A615A619A613B1D00221A6092
:101600005A609A60DA601A615A614FF44030FFF70D
:1016100035FB0220FFF7A8FB40237B600223BB6061
:101620000323FB6001233B6100237B610423BB6137
:101630003B1D1946214809F038FB80237B600223BB
:10164000BB600323FB6001233B6100237B61042318
:10165000BB613B1D1946194809F027FB4FF40010E8
:10166000FFF79AFB1648FFF743FA002200211448BF
:10167000FFF716FA1248FFF72BFA1148FFF700FAA6
:101680000F48FFF7EDF90023FB610E4B3B6200238F
:101690007B620023BB620023FB6200233B630023C9
:1016A0007B6307F11C031946054809F015FC044843
:1016B000FFF7C6F900BF3837BD4680BD00040240C1
:1016C00000540040FF63106080B58EB000AF07F19A
:1016D0001C0300221A605A609A60DA601A615A612B
:1016E0009A613B1D00221A605A609A60DA601A61A2
:1016F0005A614FF44020FFF7C1FA0220FFF734FB94
:101700004FF480637B600223BB600323FB600123F3
:101710003B6100237B610423BB613B1D19462148CB
:1017200009F0C3FA4FF400637B600223BB6003231C
:10173000FB6001233B6100237B610423BB613B1DF4
:101740001946184809F0B1FA4FF48000FFF724FB5E
:101750001548FFF7CDF9002200211348FFF7A0F943
:101760001148FFF7B5F91048FFF78AF90E48FFF75F
:1017700077F90023FB610D4B3B6200237B62002362
:10178000BB620023FB6200233B6300237B6307F102
:101790001C031946044809F09FFB00BF3837BD46BB
:1017A00080BD00BF0004024000580040FFEAC000B6
:1017B00080B590B000AF07F1180328220021184629
:1017C0000BF03EFC3B4600221A605A609A60DA60D9
:1017D0001A615A614FF48050FFF7F6FA0120FFF7C3
:1017E000C3FA10233B6002237B600323BB6000230A
:1017F000FB6000233B6105237B613B461946304873
:1018000009F053FA20233B6002237B600323BB6073
:101810000023FB6000233B6105237B613B461946A7
:10182000274809F042FA40233B6002237B600323F0
:10183000BB600023FB6000233B6105237B613B46CB
:1018400019461F4809F031FA80233B6002237B6070
:101850000323BB600023FB6000233B6105237B6106
:101860003B461946164809F020FA0023BB614FF4A5
:101870008273FB614FF4E0633B6200237B620023D1
:10188000BB620023FB6200233B6300237B630023D6
:10189000BB630723FB6307F118031946094809F0E6
:1018A000F3FE00210748FFF711FB0648FFF721FB75
:1018B0000448FFF7FBFA00BF4037BD4680BD00BFBC
:1018C000000002400030014080B590B000AF07F149
:1018D00018032822002118460BF0B2FB3B460022D9
:1018E0001A605A609A60DA601A615A614FF4804057
:1018F000FFF752FA0220FFF737FA4FF400533B602C
:1019000002237B600323BB600023FB6000233B6159
:1019100005237B613B461946414809F0C6F94FF45F
:1019200080433B6002237B600323BB600023FB609A
:1019300000233B6105237B613B461946384809F08B
:10194000B4F94FF400433B6002237B600323BB6088
:101950000023FB6000233B6105237B613B46194666
:101960002F4809F0A2F94FF0905201212D48FFF7BE
:1019700023F8002201212B48FEF722FF4FF44032CA
:1019800001212848FEF7F4FF4FF480720121254819
:10199000FEF73AFF002201212248FEF759FF4FF4DB
:1019A000806201211F48FEF777FF4FF4006201219A
:1019B0001C48FEF795FF4FF4005201211948FEF72D
:1019C000B3FF01211748FFF71BF80023BB614FF459
:1019D0008273FB614FF470633B6200237B620023E0
:1019E000BB624FF40073FB6200233B6300237B6305
:1019F0000023BB630723FB6307F1180319460A485A
:101A000009F042FE00210848FFF760FA0648FFF798
:101A100070FA0548FFF74AFA00BF4037BD4680BD5F
:101A200000040240006002400038004080B590B0E1
:101A300000AF07F118032822002118460BF000FB25
:101A40003B4600221A605A609A60DA601A615A6155
:101A50004FF40040FFF7A0F90420FFF785F94FF499
:101A600080633B6002237B600323BB600023FB6039
:101A700000233B6106237B613B461946284809F059
:101A800014F94FF400633B6002237B600323BB60C7
:101A90000023FB6000233B6106237B613B46194624
:101AA0001F4809F002F94FF480533B6002237B602A
:101AB0000323BB600023FB6000233B6106237B61A3
:101AC0003B461946164809F0F0F80023BB614FF475
:101AD0008273FB614FF4E0633B6200237B6200236F
:101AE000BB624FF40073FB6200233B6300237B6304
:101AF0000023BB630723FB6307F11803194609485A
:101B000009F0C2FD00210748FFF7E0F90548FFF79B
:101B1000F0F90448FFF7CAF900BF4037BD4680BD61
:101B200000080240003C004080B590B000AF07F1D3
:101B300018032822002118460BF082FA3B460022A7
:101B40001A605A609A60DA601A615A614FF4005064
:101B5000FFF73AF91020FFF707F94FF480533B6085
:101B600002237B600323BB600023FB6000233B61F7
:101B700005237B613B461946284809F096F84FF447
:101B800000533B6002237B600323BB600023FB60A8
:101B900000233B6105237B613B4619461F4809F042
:101BA00084F84FF480433B6002237B600323BB60D7
:101BB0000023FB6000233B6105237B613B46194604
:101BC000164809F072F80023BB614FF48273FB6181
:101BD0004FF4E0633B6200237B620123BB624FF45E
:101BE0000073FB6220233B6300237B630023BB6302
:101BF0000723FB6307F118031946094809F044FD60
:101C000000210748FFF762F90548FFF782F9044809
:101C1000FFF74CF900BF4037BD4680BD00100240C1
:101C20000034014080B590B000AF07F118032822BE
:101C3000002118460BF004FA3B4600221A605A6055
:101C40009A60DA601A615A614FF40010FFF7BCF82D
:101C50000220FFF789F808233B6002237B600323FF
:101C6000BB600023FB6000233B6108237B613B4694
:101C70001946574809F019F810233B6002237B608E
:101C80000323BB600023FB6000233B6108237B61CF
:101C90003B4619464E4809F008F820233B600223D2
:101CA0007B600323BB600023FB6000233B610823B0
:101CB0007B613B461946464808F0F7FF4FF000723B
:101CC00005214448FEF778FE402205214148FEF7F1
:101CD00077FD4FF4403205213E48FEF749FE0022D1
:101CE00005213C48FEF790FD002205213948FEF70A
:101CF000AFFD4FF4806205213648FEF7CDFD00228E
:101D000005213448FEF7ECFD002205213148FEF79D
:101D10000BFE05212F48FEF773FE4FF000720621DF
:101D20002C48FEF749FE002206212A48FEF748FD0E
:101D30004FF4403206212748FEF71AFE0022062102
:101D40002448FEF761FD002206212248FEF780FDAF
:101D50004FF4806206211F48FEF79EFD00220621F7
:101D60001C48FEF7BDFD002206211A48FEF7DCFDE7
:101D700006211848FEF744FE0023BB614FF482732E
:101D8000FB614FF4E0633B6200237B620023BB6294
:101D90004FF40073FB6200233B6300237B6300234B
:101DA000BB630723FB6307F1180319460A4809F0D0
:101DB0006BFC00210848FFF789F80748FFF799F8FE
:101DC0000548FFF773F800BF4037BD4680BD00BF30
:101DD00000040240006402400054014080B588B015
:101DE00000AF07F1100300221A605A609A60DA60AF
:101DF0003B1D00221A605A609A60204B204A1A60EC
:101E00001E4B00225A601D4B00229A601B4B4FF65E
:101E1000FF72DA60194B00221A61184B00225A61D6
:101E2000164B00229A61154808F044FB0346002B2C
:101E300001D000F05DFD4FF480533B6107F11003CA
:101E400019460E4808F08EFB0346002B01D000F027
:101E50004FFD00237B600023BB600023FB603B1D24
:101E60001946064808F08EFD0346002B01D000F00D
:101E70003FFD00BF2037BD4680BD00BF7844002035
:101E80000000014080B594B000AF07F13C03002290
:101E90001A605A609A60DA601A6107F11C03202206
:101EA000002118460BF0CCF83B1D00221A605A6046
:101EB0009A60DA601A615A610420FEF76DFF0A2306
:101EC000BB8700233B644CF250337B644FF40073B8
:101ED000BB6407F13C031946554809F0C3FC54485C
:101EE000FFF727F800215248FFF7D6F801215048A4
:101EF000FFF782F86023FB6100233B6200237B62D3
:101F00000023BB620023FB6207F11C031A46012178
:101F1000474809F041FD01214548FFF71BF8102112
:101F20004348FFF769F807F11C031A46102140489F
:101F300009F032FD10213E48FFF70CF84FF4807194
:101F40003B48FFF759F807F11C031A464FF480711C
:101F5000374809F021FD4FF480713548FEF7FAFF4C
:101F60004FF480513248FFF747F807F11C031A4637
:101F70004FF480512E4809F00FFD4FF480512C484A
:101F8000FEF7E8FF00212A48FFF79CF82848FFF7F2
:101F9000ACF80820FEF7E8FE4FF480537B60022384
:101FA000BB600023FB6000233B6100237B610223B5
:101FB000BB613B1D19461F4808F077FE4FF40053E4
:101FC0007B600223BB600023FB6000233B61002396
:101FD0007B610223BB613B1D1946164808F065FE74
:101FE0004FF480437B600223BB600023FB6000232F
:101FF0003B6100237B610223BB613B1D19460D48F9
:1020000008F053FE4FF400437B600223BB600023C3
:10201000FB6000233B6100237B610223BB613B1D0E
:102020001946044808F041FE00BF5037BD4680BD48
:1020300000080040000C024080B58EB000AF07F1F0
:102040001C0300221A605A609A60DA601A615A61B1
:102050009A613B1D00221A605A609A60DA601A6128
:102060005A614FF04050FEF7EFFD4FF08040FEF711
:1020700093FE1020FEF778FE80237B600223BB6076
:102080000323FB6000233B6100237B610823BB61CA
:102090003B1D1946194808F008FE4FF480737B6019
:1020A0000223BB600323FB6000233B6100237B61B1
:1020B0000823BB613B1D1946104808F0F6FD4FF49C
:1020C000E133FB6100233B6200237B620023BB62A0
:1020D0000C23FB6200233B6300237B6307F11C039B
:1020E0001946074809F078FF0548FFF769F80448E2
:1020F000FFF70BF800BF3837BD4680BD0010024027
:102100000078004080B58EB000AF07F11C030022BC
:102110001A605A609A60DA601A615A619A613B1DCE
:1021200000221A605A609A60DA601A615A614FF4AC
:102130004030FEF76FFD1020FEF746FE0120FEF74F
:1021400013FE4FF400737B600223BB600323FB602C
:1021500000233B6100237B610723BB613B1D1946C4
:102160002A4808F0A2FD4FF480637B600223BB6025
:102170000323FB6000233B6100237B610723BB61DA
:102180003B1D1946214808F090FD4FF480537B60B9
:102190000223BB600323FB6000233B6100237B61C0
:1021A0000723BB613B1D1946184808F07EFD4FF41C
:1021B000E133FB6100233B6200237B620023BB62AF
:1021C0000C23FB6200233B6300237B6307F11C03AA
:1021D00019460F4809F000FF0D48FEF7CEFF002119
:1021E0000B48FEF7DAFF00210948FEF7B2FF002195
:1021F0000748FEF79AFF0648FEF7E2FF0448FEF79D
:1022000084FF00BF3837BD4680BD00BF00000240DC
:102210000010014080B58EB000AF07F11C03002212
:102220001A605A609A60DA601A615A619A613B1DBD
:1022300000221A605A609A60DA601A615A614FF09F
:102240004060FEF7E7FC2020FEF7BEFD0420FEF70D
:102250008BFD40237B600223BB600323FB600023D4
:102260003B6100237B610823BB613B1D194621486C
:1022700008F01BFD80237B600223BB600323FB600F
:1022800000233B6100237B610823BB613B1D194692
:10229000184808F00AFDFEF709FA034600220E214D
:1022A0001846FEF759FA034619464720FEF72AFA60
:1022B0004720FEF709FA4FF4E133FB6100233B624C
:1022C00000237B620023BB620C23FB6200233B6381
:1022D00000237B6307F11C031946074809F07CFEC5
:1022E0000548FEF76DFF0448FEF70FFF00BF3837C3
:1022F000BD4680BD000802400014014080B500AF1B
:102300004FF48000FEF730FD4FF40010FEF72CFD77
:10231000FEF7CCF90346002200211846FEF71CFA0E
:10232000034619460C20FEF7EDF90C20FEF7CCF918
:1023300000220021382007F062FB382007F07BFBE9
:10234000FEF7B4F90346002200211846FEF704FA0E
:10235000034619464420FEF7D5F94420FEF7B4F9A8
:10236000FEF7A4F90346002200211846FEF7F4F90F
:10237000034619464520FEF7C5F94520FEF7A4F9A6
:1023800000BF80BD80B586B000AF3B4600221A601A
:102390005A609A60DA601A615A611020FEF7E4FC14
:1023A0000420FEF7E1FC8020FEF7DEFC0120FEF7B2
:1023B000DBFC0220FEF7D8FC0820FEF7D5FC042148
:1023C000BF48FEF721FF0821BD48FEF71DFF102181
:1023D000BB48FEF719FF2021B948FEF715FF402141
:1023E000B748FEF711FF4FF40051B648FEF70CFF57
:1023F0004FF48041B348FEF707FF4FF40041B14866
:10240000FEF702FF4FF40061AD48FEF7FDFE4FF40A
:102410000061AD48FEF7F8FE4FF40041AA48FEF710
:10242000F3FE0121A948FEF7EFFE0221A748FEF7BF
:10243000EBFE0421A548FEF7E7FE1021A348FEF7B6
:10244000E3FE2021A148FEF7DFFE40219F48FEF772
:10245000DBFE04219E48FEF7C9FE4FF480619848D8
:10246000FEF7C4FE4FF400419548FEF7BFFE4FF45F
:1024700080519748FEF7BAFE4FF480719348FEF7FB
:10248000B5FE4FF400719148FEF7B0FE4FF4806145
:102490008E48FEF7ABFE80218C48FEF7A7FE4FF476
:1024A00080718B48FEF7A2FE4FF400718848FEF75A
:1024B0009DFE01218248FEF799FE02218048FEF729
:1024C00095FE04233B6001237B600023BB60002357
:1024D000FB6000233B613B461946794808F0E5FB69
:1024E00008233B6001237B600023BB600023FB606B
:1024F00000233B613B461946714808F0D6FB102388
:102500003B6001237B600023BB600023FB60002352
:102510003B613B4619466A4808F0C7FB20233B60F5
:1025200001237B600023BB600023FB6000233B6131
:102530003B461946624808F0B8FB40233B60012344
:102540007B600023BB600023FB6000233B613B46B4
:1025500019465B4808F0A9FB4FF400533B60012388
:102560007B600023BB600023FB6000233B613B4694
:102570001946544808F099FB4FF480433B6001230F
:102580007B600023BB600023FB6000233B613B4674
:1025900019464C4808F089FB4FF400433B60012387
:1025A0007B600023BB600023FB6000233B613B4654
:1025B0001946444808F079FB04233B6001237B6003
:1025C0000023BB600023FB6000233B613B461946B0
:1025D0003F4808F06AFB4FF480633B6001237B6057
:1025E0000023BB600023FB6000233B613B46194690
:1025F000334808F05AFB4FF400633B6001237B60D3
:102600000023BB600023FB6000233B613B4619466F
:102610002B4808F04AFB4FF400433B6001237B60EA
:102620000023BB600023FB6000233B613B4619464F
:10263000234808F03AFB4FF480533B6001237B6052
:102640000023BB600023FB6000233B613B4619462F
:102650001F4808F02AFB4FF480733B6001237B6026
:102660000323BB600023FB6000233B613B4619460C
:10267000164808F01AFB4FF400733B6001237B609F
:102680000323BB600023FB6000233B613B461946EC
:102690000E4808F00AFB4FF480633B6001237B6027
:1026A0000323BB600023FB6000233B613B461946CC
:1026B000064808F0FAFA4FF400633B600AE000BFF6
:1026C000001002400008024000000240000C0240DE
:1026D0000004024000237B6000233B613B46194617
:1026E0007E4808F0E2FA4FF480733B6000237B6081
:1026F00000233B613B461946794808F0D6FA4FF46F
:1027000000733B6000237B6000233B613B4619461E
:10271000734808F0CAFA4FF480733B6000237B6073
:1027200000233B613B4619466E4808F0BEFA4FF461
:1027300000633B6001237B600023BB600023FB60E0
:1027400000233B613B461946664808F0AEFA4FF459
:1027500000433B6001237B600023BB600023FB60E0
:1027600000233B613B4619465E4808F09EFA012370
:102770003B6001237B600023BB600023FB600023E0
:102780003B613B461946554808F08FFA02233B60EF
:1027900001237B600023BB600023FB6000233B61BF
:1027A0003B4619464D4808F080FA04233B6001235C
:1027B0007B600023BB600023FB6000233B613B4642
:1027C0001946464808F071FA08233B6000237B60F5
:1027D00000233B613B461946404808F066FA102347
:1027E0003B6001237B600023BB600023FB60002370
:1027F0003B613B461946394808F057FA20233B60B5
:1028000001237B600023BB600023FB6000233B614E
:102810003B461946314808F048FA40233B60012303
:102820007B600023BB600023FB6000233B613B46D1
:1028300019462A4808F039FA80233B6001237B605F
:102840000023BB600023FB6000233B613B4619462D
:10285000224808F02AFA4FF480733B6001237B6022
:102860000023BB600023FB6000233B613B4619460D
:102870001D4808F01AFA4FF400733B6001237B6097
:102880000023BB600023FB6000233B613B461946ED
:10289000154808F00AFA01233B6001237B600023FE
:1028A000BB600023FB6000233B613B4619460F4899
:1028B00008F0FBF902233B6001237B600023BB602F
:1028C0000023FB6000233B613B461946074808F0A4
:1028D000ECF900BF1837BD4680BD00BF000C0240B8
:1028E00000080240000002400004024000100240C4
:1028F00080B400AF72B600BF00BFFDE780B483B004
:1029000000AF0F4B1B6C0E4A43F0805313640C4B0B
:102910001B6C03F080537B607B68094B5B6C084A3F
:1029200043F480435364064B5B6C03F480433B6089
:102930003B6800BF0C37BD465DF8047B704700BFA5
:102940000038024080B58EB000AF786007F12403F4
:1029500000221A605A609A60DA601A617B681B680C
:10296000634A93426CD1634B5B6C624A43F480735D
:102970005364604B5B6C03F480733B623B6A5D4B5A
:102980001B6B5C4A43F0040313635A4B1B6B03F04D
:102990000403FB61FB69574B1B6B564A43F0020370
:1029A0001363544B1B6B03F00203BB61BB693F23F2
:1029B0007B620323BB620023FB6207F124031946F9
:1029C0004D4807F0CBFB03237B620323BB6200234C
:1029D000FB6207F124031946484807F0BFFB484B48
:1029E000484A1A60464B00225A60454B00229A60C2
:1029F000434B0022DA60424B4FF480621A61404B35
:102A00004FF400625A613E4B4FF400529A613C4BC6
:102A10004FF48072DA613A4B00221A62384B00227E
:102A20005A62374807F022F80346002B01D0FFF71F
:102A30005FFF7B68324A9A63314A7B68936352E056
:102A40007B681B68304A934224D12A4B5B6C294A2D
:102A500043F400735364274B5B6C03F400737B6196
:102A60007B69244B1B6B234A43F001031363214B07
:102A70001B6B03F001033B613B690C237B62032367
:102A8000BB620023FB6207F1240319461F4807F0CD
:102A900065FB28E07B681B681D4A934223D1154BD8
:102AA0005B6C144A43F480635364124B5B6C03F415
:102AB0008063FB60FB680F4B1B6B0E4A43F0010306
:102AC00013630C4B1B6B03F00103BB60BB68022359
:102AD0007B620323BB620023FB6207F124031946D8
:102AE0000A4807F03BFB00BF3837BD4680BD00BF3A
:102AF000002001400038024000080240000402406B
:102B000018440020106402400021014000000240EF
:102B10000022014080B485B000AF78607B681B68FC
:102B20000A4A93420BD10A4B5B6C094A43F00103FA
:102B30005364074B5B6C03F00103FB60FB6800BF51
:102B40001437BD465DF8047B704700BF00000140AC
:102B50000038024080B483B000AF78607B685B6867
:102B600003F40063B3F5006F0CBF01230023DBB255
:102B700018460C37BD465DF8047B704780B483B0BF
:102B800000AF78607B685B6803F40013B3F5001F47
:102B90000CBF01230023DBB218460C37BD465DF89D
:102BA000047B704780B483B000AF78607B684FF4DB
:102BB0000062DA6000BF0C37BD465DF8047B7047E9
:102BC00080B483B000AF78607B684FF40012DA60A5
:102BD00000BF0C37BD465DF8047B704780B400AF82
:102BE00000BFFDE780B400AF00BFFDE780B400AFD9
:102BF00000BFFDE780B400AF00BFFDE780B400AFC9
:102C000000BFFDE780B400AF00BFBD465DF8047BA8
:102C1000704780B400AF00BFBD465DF8047B7047CD
:102C200080B400AF00BFBD465DF8047B704780B53F
:102C300000AF06F04DF906F0C3F900BF80BD80B4C7
:102C400000AF00BFBD465DF8047B704780B500AFA4
:102C5000024807F019F800BF80BD00BF18440020EB
:102C600080B400AF00BFBD465DF8047B7047000034
:102C700080B500AF0B48FFF781FF0346002B02D061
:102C80000848FFF79DFF0748FFF764FF0346002B46
:102C900002D00448FFF786FF034802F0F7FF00BFA9
:102CA00080BD00BF006402401000002080B500AF6E
:102CB00001F08EFB00BF80BD80B400AF0123184639
:102CC000BD465DF8047B704780B582B000AF786088
:102CD00039600AF015FA034616221A604FF0FF33E6
:102CE00018460837BD4680BD80B582B000AF786019
:102CF0004FF0FF317868FFF7E7FF00BFFDE780B5D1
:102D000086B000AFF860B9607A6000237B610AE0AA
:102D1000AFF300800146BB685A1CBA60CAB21A7091
:102D20007B6901337B617A697B689A42F0DB7B685F
:102D300018461837BD4680BD80B586B000AFF86034
:102D4000B9607A6000237B6109E0BB685A1CBA60F5
:102D50001B781846AFF300807B6901337B617A6989
:102D60007B689A42F1DB7B6818461837BD4680BD08
:102D700080B483B000AF78604FF0FF3318460C3753
:102D8000BD465DF8047B704780B483B000AF7860C7
:102D900039603B684FF400525A60002318460C37E4
:102DA000BD465DF8047B704780B483B000AF7860A7
:102DB000012318460C37BD465DF8047B704780B48C
:102DC00085B000AFF860B9607A6000231846143708
:102DD000BD465DF8047B704780B586B000AF786073
:102DE000144A154BD31A7B617B693B61134B1B68FB
:102DF000002B02D1114B124A1A60104B1A687B68E3
:102E000013443A699A4207D20AF07AF903460C222F
:102E10001A604FF0FF3309E0084B1B68FB60074B5B
:102E20001A687B681344054A1360FB681846183714
:102E3000BD4680BD0000082000040000C4440020FE
:102E4000705A002080B400AF064BD3F88830054A92
:102E500043F47003C2F8883000BFBD465DF8047BC0
:102E6000704700BF00ED00E0DFF834D0FFF7EAFF65
:102E70000C480D490D4A002302E0D458C4500433D5
:102E8000C4188C42F9D30A4A0A4C002301E01360AB
:102E90000432A242FBD30AF039F9FEF7C4F97047B5
:102EA000000008200000002024430020E809010859
:102EB000244300206C5A0020FEE780B500AF01F0EB
:102EC000E5F901F03BFB02F041F900F091F800BF99
:102ED00080BD80B500AF012000F0ACF8042001F007
:102EE00007FA022001F050FB032002F051F900BF65
:102EF00080BD80B500AF05F0E9FE00BF80BD0000D9
:102F000080B586B002AF786039600A4BFB6024233D
:102F10000093094BFA680949094805F0E1FB02F002
:102F2000DBFA7B68012283F82D2000BF1037BD46F5
:102F300080BD00BFD0EF0008D8EF000800F0000807
:102F4000A845002080B584B000AF786039607B6808
:102F50005B69FB607B685B69396878689847034602
:102F6000FB72FB7A002B08D1FB680649786898470A
:102F70007B685B6904497868984700BF1037BD4695
:102F800080BD00BFEC020108D802010880B584B002
:102F900002AF786039607B68002B03D100211148B3
:102FA00002F05CF978683B685A683B689B6800935C
:102FB00013460D4A0D4905F0D7FE7B6818337A6831
:102FC0000E21184605F032FF7B681833184605F0CD
:102FD00065FF3B681A7B7B6883F8282000BF0837B1
:102FE000BD4680BDC8020108452F0008012F00081A
:102FF00090B587B002AF1423009302232822094919
:10300000094805F0D2FB094B3C460FCB84E80F0082
:103010003B4619460648FFF7B9FF00BF1437BD46C7
:1030200090BD00BF104500203845002024F0000866
:10303000C844002080B582B000AF0346FB71FB7925
:103040001946034805F0AAFE00BF0837BD4680BDFB
:10305000C844002080B586B002AF786039603B6814
:103060001B88012B02D00F2B0FD021E0134BFB60EC
:1030700051230093124BFA681249134805F030FBB4
:103080007B681833184605F009FF3B689B78002BD6
:1030900002D0012B05D009E07B680C4A5A6100235D
:1030A00007E07B680A4A5A61002302E0022300E03D
:1030B000022318461037BD4680BD00BFD0EF000880
:1030C000D8EF000834F00008A8450020D5300008EB
:1030D0002532000880B586B002AF786039603B6861
:1030E0001B88013B112B00F28C8001A252F823F0C7
:1030F0003931000803320008693100080332000842
:1031000003320008033200080332000803320008CB
:1031100003320008033200080332000803320008BB
:1031200003320008F1310008033200088B31000837
:10313000AB310008CB310008344BBB6071230093E6
:10314000334BBA683349344805F0CAFA7B68183300
:1031500000224FF4FA61184605F08AFE7B680022CF
:1031600083F8282001234DE0284BFB60782300934F
:10317000274BFA682949284805F0B2FA7B681833CA
:10318000184605F08BFE01233CE07B6893F828305D
:10319000002B04D17B68012283F8282003E07B68A0
:1031A000032283F8282001232CE07B6893F8283041
:1031B000012B04D17B68022283F8282003E07B687E
:1031C000032283F8282001231CE07B6893F8283031
:1031D000022B04D17B68052283F8282003E07B685A
:1031E000032283F828207B680D4A5A61002309E0F6
:1031F0007B68042283F828207B68094A5A610023EF
:1032000000E0022318461037BD4680BDD0EF00080D
:10321000D8EF00086CF00008A8450020A8F00008CE
:103220005530000880B483B000AF78603960022365
:1032300018460C37BD465DF8047B704780B584B0F6
:1032400000AFF860B9607A60BB68012B02D87B6878
:10325000642B01D9062318E0FB6893F82D30002B6E
:1032600006D0002002F0F4F8FB68002283F82D203D
:103270007968B86802F0DAF97B68D9B2FA68BB6895
:10328000134429330A461A70002318461037BD46E6
:1032900080BD80B485B000AF786039603B68002B9A
:1032A00002D00123FB6001E00023FB607A68FB6829
:1032B000134429331B7818461437BD465DF8047B48
:1032C000704780B582B000AF786039603B68232BCF
:1032D00001D9062314E07B6893F82D30012B06D02A
:1032E000012002F0B5F87B68012283F82D203868B0
:1032F00002F028F93B68DAB27B6883F82B200023C0
:1033000018460837BD4680BD80B582B000AF7860F2
:103310007B6893F82D30012B06D0012002F098F83D
:103320007B68012283F82D2002F01CF97B68FF22C4
:1033300083F82B20002318460837BD4680BD80B592
:1033400082B000AF786039603B68072B01D9062353
:1033500014E07B6893F82D30012B06D0012002F099
:1033600077F87B68012283F82D20386802F004F991
:103370003B68DAB27B6883F82C20002318460837B4
:10338000BD4680BD80B582B000AF78607B6893F8A1
:103390002D30012B06D0012002F05AF87B68012263
:1033A00083F82D2002F0F8F87B68FF2283F82C20A8
:1033B000002318460837BD4680BD000080B400AF2A
:1033C000BFF34F8F00BF064BDB6803F4E062044994
:1033D000044B1343CB60BFF34F8F00BF00BFFDE72B
:1033E00000ED00E00400FA0580B588B000AFF86099
:1033F000B9607A6007F11403074A0A21184609F0F8
:1034000099FC07F114031946F86803F043FD00BF67
:103410002037BD4680BD00BFD0F7000880B584B01E
:1034200000AFF860B9607A60FFF7C8FF80B588B078
:1034300000AFF860B9607A600023BB610023FB82B3
:10344000B86803F01FFE03467B757B7D012B04D01B
:103450002449F86804F09CFF40E00121B86803F0BB
:10346000DBFD38613B691B78612B16D10023FB77AC
:103470000FE0FB7F184601F0C7FE0346FB82FA7F90
:10348000B7F916301849F86804F082FFFB7F013362
:10349000FB77FB7F072BECD920E03B691B782F2BB8
:1034A00018D93B691B78372B14D8386908F06AFEA5
:1034B0000346BB61B86901F0A7FE0346FB820B48D7
:1034C00003F020FBB7F91630BA690749F86804F031
:1034D0005FFF03E00649F86804F05AFF2037BD4655
:1034E00080BD00BFD8F70008F8F700087458002026
:1034F00008F8000880B588B000AFF860B9607A605D
:10350000B86803F0BFFD0346FB61FB69012B04D0E3
:103510001549F86804F03CFF23E0144B1B6818467B
:1035200001F0F8FB034683F00103DBB2002B04D06B
:103530000F49F86804F02CFF13E00121B86803F08C
:103540006BFDB861B86908F01DFE03467B61074B4F
:103550001B687969184601F092FD0649F86804F085
:1035600017FF2037BD4680BDD8F7000804000020B3
:103570001CF8000868F8000880B584B000AFF86057
:10358000B9607A600A4B1B68184601F091FD03464A
:10359000002B04D00749F86804F0FAFE03E006495E
:1035A000F86804F0F5FE00BF1037BD4680BD00BFCF
:1035B0000400002070F8000880F8000880B588B08A
:1035C00000AFF860B9607A60B86803F05BFD03464D
:1035D000BB61BB69012B04D03849F86804F0D8FE00
:1035E00069E0374B1B68184601F094FB034683F0F3
:1035F0000103DBB2002B04D03249F86804F0C8FEA6
:1036000059E00121B86803F007FD786100233B61B0
:103610007B691B78612B25D10023FB611EE0284BC1
:103620001B68F969184601F030FB38613B69002BD3
:103630000CD1234B1B680022F969184601F045FBA9
:10364000FA692149F86804F0A3FE04E0FA691F4909
:10365000F86804F09DFEFB690133FB61FB69032BF5
:10366000DDD928E07B691B782F2B24D97B691B7857
:10367000332B20D8786908F085FD0346FB61104B99
:103680001B68F969184601F000FB38613B69002BA3
:103690000CD10B4B1B680022F969184601F015FB91
:1036A000FA690949F86804F073FE04E0FA69074909
:1036B000F86804F06DFE2037BD4680BDD8F70008DD
:1036C0000400002090F80008D8F80008ECF8000882
:1036D00080B588B000AFF860B9607A60B86803F070
:1036E000D1FC0346FB61FB69012B04D01549F86846
:1036F00004F04EFE22E00121B86803F08DFCB861B1
:10370000B86908F03FFD0346FB82FB8AB3F5FA7FF8
:1037100004D3FB8A40F6B832934204D90A49F868C8
:1037200004F036FE0AE0094B1B68FA8A1146184677
:1037300001F055FB0649F86804F02AFE2037BD4623
:1037400080BD00BF04F900082CF900080400002027
:1037500060F9000880B586B000AFF860B9607A60A3
:10376000084B1B68184601F080F90346FB82FB8A70
:103770001A460549F86804F00BFE00BF1837BD462D
:1037800080BD00BF0400002068F9000880B588B043
:1037900000AFF860B9607A60B86803F073FC034664
:1037A000BB61BB69042B04D02449F86804F0F0FD28
:1037B00041E00023FB613BE0FB699BB201339BB21C
:1037C0001946B86803F028FC0346184608F0DAFCEE
:1037D0000346D9B207F11402FB6913440A461A7072
:1037E00007F11402FB6913441B78012B05D9FA6910
:1037F0001349F86804F0CCFD1DE007F11402FB69E1
:1038000013441B78002B08D10E4B1B68FA69D2B207
:103810001146184601F0B3FA07E00A4B1B68FA6933
:10382000D2B21146184601F089FAFB690133FB61F7
:10383000FB69032BC0D92037BD4680BD88F900083D
:10384000ACF900080400002080B586B000AFF86035
:10385000B9607A60154B1B68184601F0B3FA03464D
:10386000FB7400237B6115E0FA7C7B6942FA03F369
:1038700003F00103002B05D07A690D49F86804F0C4
:1038800087FD04E07A690B49F86804F081FD7B69E3
:1038900001337B617B69032BE6D90749F86804F0A3
:1038A00077FD00BF1837BD4680BD00BF0400002073
:1038B000D4F90008E8F9000800FA000880B58CB0D7
:1038C00000AFF860B9607A60364B1B68184601F0AB
:1038D00021FA034683F00103DBB2002B04D0324906
:1038E000F86804F055FD5AE0B86803F0CBFB0346D6
:1038F000BB62BB6A032B04D02C49F86804F048FD76
:103900004DE00121B86803F087FB7862786A08F01F
:1039100039FC03463B623B6A032B04D92449F8680F
:1039200004F036FD3BE00221B86803F075FBF86156
:10393000F86908F027FC0346FB62FB6A012B02D9F9
:103940000123FB6201E00023FB620321B86803F05E
:1039500063FBB861B86908F015FC0346FB82FB8A7B
:1039600040F6B832934204D91249F86804F010FDC9
:1039700015E00C4B1868FB8AFA6A396A01F0FFFA05
:1039800038613B69002B04D00B49F86804F000FD56
:1039900005E0FB8A3A6A0949F86804F0F9FC303717
:1039A000BD4680BD0400002004FA000828FA000883
:1039B00054FA000878FA0008A4FA0008B8FA0008D7
:1039C00080B58AB000AFF860B9607A602F4B1B6891
:1039D000184601F09FF9034683F00103DBB2002B88
:1039E00004D02B49F86804F0D3FC4CE0B86803F02D
:1039F00049FB03467B627B6A022B04D02549F868A9
:103A000004F0C6FC3FE00121B86803F005FB386212
:103A1000386A08F0B7FB0346FB61FB69032B04D946
:103A20001D49F86804F0B4FC2DE00221B86803F0E9
:103A3000F3FAB861B86908F0A5FB03467B61134B44
:103A400018687B69002B14BF01230023DBB21A46E0
:103A5000F96901F03AF938613B69002B05D0FA6940
:103A60000E49F86804F094FC0DE07B69002B05D04A
:103A7000FA690B49F86804F08BFC04E0FA6909491B
:103A8000F86804F085FC2837BD4680BD040000209E
:103A900004FA0008D0FA000854FA0008F0FA000806
:103AA00014FB000830FB000880B588B000AFF86058
:103AB000B9607A60B86803F0E5FA0346FB61FB6918
:103AC000012B04D01249F86804F062FC1CE00121CB
:103AD000B86803F0A1FAB861B86908F053FB03466F
:103AE000FB75FB7D642B04D90A49F86804F050FC8F
:103AF0000AE0094B1B68FA7D1146184601F08BF964
:103B00000649F86804F044FC2037BD4680BD00BF7C
:103B100018FC00083CFC00080400002060F90008C4
:103B200080B586B000AFF860B9607A60084B1B685A
:103B3000184601F086F90346FB75FB7D1A460549D8
:103B4000F86804F025FC00BF1837BD4680BD00BFF3
:103B50000400002060FC000880B588B000AFF86069
:103B6000B9607A60B86803F08DFA0346BB61BB693F
:103B7000042B04D02449F86804F00AFC41E0002337
:103B8000FB613BE0FB699BB201339BB21946B8680D
:103B900003F042FA0346184608F0F4FA0346D9B295
:103BA00007F11402FB6913440A461A7007F1140264
:103BB000FB6913441B78012B05D9FA691349F8688E
:103BC00004F0E6FB1DE007F11402FB6913441B78C7
:103BD000002B08D10E4B1B68FA69D2B21146184669
:103BE00001F05DF907E00A4B1B68FA69D2B2114691
:103BF000184601F033F9FB690133FB61FB69032BC4
:103C0000C0D92037BD4680BD7CFC0008ACF9000857
:103C10000400002080B586B000AFF860B9607A601B
:103C2000144B1B68184601F05DF90346FB74002332
:103C30007B6113E0FA7C7B6942FA03F303F0010332
:103C4000002B04D00C49F86804F0A2FB03E00B49F8
:103C5000F86804F09DFB7B6901337B617B69032B72
:103C6000E8D90749F86804F093FB00BF1837BD4650
:103C700080BD00BF04000020A4FC0008BCFC0008BC
:103C800000FA000880B588B000AFF860B9607A60CB
:103C9000B86803F0F7F90346FB61FB69012B04D018
:103CA0001549F86804F074FB23E00121B86803F0BB
:103CB000B3F9B861B86908F065FA0346FB820F4BA7
:103CC0001B68B7F916201146184601F02EF9B7F90E
:103CD000163007EE903AB8EEE77AF2EE046AC7EED5
:103CE000267AB7EEE77A53EC172B0549F86804F00B
:103CF0004FFB2037BD4680BDD8FC000804000020E3
:103D000000FD000880B586B000AFF860B9607A6049
:103D10000E4B1B68184601F018F90346FB82B7F9F1
:103D2000163007EE903AB8EEE77AF2EE046AC7EE84
:103D3000267AB7EEE77A53EC172B0549F86804F0BA
:103D400027FB00BF1837BD4680BD00BF0400002020
:103D500020FD000880B588B000AFF860B9607A60D7
:103D6000B86803F08FF90346FB61FB69012B04D0AF
:103D70001049F86804F00CFB19E00121B86803F061
:103D80004BF9B861B86908F0FDF903467B617B69BE
:103D9000072B04D90849F86804F0FAFA07E0074B42
:103DA0001B687A69D2B21146184601F0A8F820378C
:103DB000BD4680BD40FD000858FD000804000020FD
:103DC00080B586B000AFF860B9607A600023FB75FB
:103DD000084B1B68184601F0C5F80346FB75FB7DD0
:103DE0001A460549F86804F0D3FA00BF1837BD46F3
:103DF00080BD00BF0400002074FD000880B584B0C1
:103E000000AFF860B9607A60064B1B68184600F096
:103E100039FE0549F86804F0BBFA00BF1037BD460B
:103E200080BD00BF0400002084FD000880B584B080
:103E300000AFF860B9607A60064B1B68184600F066
:103E40003DFE0549F86804F0A3FA00BF1037BD46EF
:103E500080BD00BF0400002098FD000880B588B038
:103E600000AFF860B9607A60B86803F00BF90346F8
:103E7000FB61FB69012B04D01449F86804F088FA4F
:103E800021E00121B86803F0C7F8B861B86908F00B
:103E900079F90346FB82B7F91630642B04DD0C492F
:103EA000F86804F075FA0EE00A4B1B68B7F91620A3
:103EB00000211846FFF7C2F9B7F916301A4606492D
:103EC000F86804F065FA2037BD4680BDACFD0008F7
:103ED000D4FD000808000020F8FD000880B588B077
:103EE00000AFF860B9607A60B86803F0CBF80346B9
:103EF000FB61FB69012B04D01449F86804F048FA0F
:103F000021E00121B86803F087F8B861B86908F0CA
:103F100039F90346FB82B7F91630642B04DD0C49EE
:103F2000F86804F035FA0EE00A4B1B68B7F9162062
:103F300001211846FFF782F9B7F916301A460649EB
:103F4000F86804F025FA2037BD4680BD1CFE000845
:103F5000D4FD000808000020F8FD000880B586B0F8
:103F600000AFF860B9607A600B4B1B6800211846FF
:103F7000FFF78FF97861084B1B6801211846FFF79E
:103F800088F938613B697A690449F86804F000FAF5
:103F900000BF1837BD4680BD0800002064FE000841
:103FA00080B588B000AFF860B9607A60B86803F097
:103FB00069F80346FB61FB69012B04D01249F868DC
:103FC00004F0E6F91CE00121B86803F025F8B861B7
:103FD000B86908F0D7F878617B69232B04DD0B49B9
:103FE000F86804F0D5F90BE0094B1B687A691146B3
:103FF0001846FFF766F97A690649F86804F0C8F9C7
:104000002037BD4680BD00BFA4FE0008C8FE0008E2
:1040100008000020ECFE000880B588B000AFF86012
:10402000B9607A60B86803F02DF80346FB61FB695C
:10403000012B04D01249F86804F0AAF91CE0012110
:10404000B86802F0E9FFB861B86908F09BF87861D8
:104050007B69072B04DD0B49F86804F099F90BE044
:10406000094B1B687A6911461846FFF768F97A69A7
:104070000649F86804F08CF92037BD4680BD00BFC2
:1040800008FF00082CFF0008080000204CFF000873
:1040900080B584B000AFF860B9607A60044B1B68EB
:1040A0001846FFF731F900BF1037BD4680BD00BF8D
:1040B0000800002080B584B000AFF860B9607A6075
:1040C000044B1B681846FFF75DF900BF1037BD466B
:1040D00080BD00BF0800002080B400AF024B18462E
:1040E000BD465DF8047B70470003010880B400AF53
:1040F0001E231846BD465DF8047B704780B483B02C
:1041000000AF78607B68DB6903F02003202B01D1CE
:10411000012300E0002318460C37BD465DF8047B00
:10412000704780B483B000AF78607B685B6ADBB2B5
:1041300018460C37BD465DF8047B704780B500AF6C
:104140004FF480720A490B4804F088FC4FF4006277
:1041500009490A4804F082FC084B064A0849094804
:1041600004F0DBF9074804F0F4F900BF80BD00BF9C
:10417000E0450020B8450020E0460020CC45002066
:1041800000140140A8450020B0B588B000AF154B21
:104190003C1D1D460FCD0FC495E8070084E80700BD
:1041A000FFF79AFF0346BB61FFF7A0FF0346BB83FF
:1041B0003B1D184602F02BFD03460B4A13600A4BC9
:1041C0001B68002B05D10121084801F047F80123A5
:1041D00004E0054B1B68064A1A6000231846203786
:1041E000BD46B0BD70FF0008E04E0020D0050108BC
:1041F000F541000880B582B000AF78600B46FB70D7
:10420000FB781946034804F00BFA00BF0837BD4697
:1042100080BD00BFA845002080B584B002AF7860A3
:1042200039607B68002B03D10021154801F016F896
:1042300078683B68DA683B681B6900931346114A4B
:10424000114904F091FD7B6820337A6809211846F2
:1042500004F0ECFD3B685A687B68DA613B689A6859
:104260007B689A613B681A687B685A617B68203377
:10427000184604F013FE00BF0837BD4680BD00BFDE
:10428000D0050108454300081143000880B588B0F7
:1042900002AFFFF753FF02230093022304220D49CC
:1042A0000D4804F082FAFFF76FFF0C4B7B600C4B5C
:1042B0001B68BB600B4BFB600B4B3B61064B7B6190
:1042C0003B1D19460948FFF7A7FF00BF1837BD4639
:1042D00080BD00BF884500208C4500204543000874
:1042E000E04E0020A84500208445002054450020D1
:1042F00080B582B000AF0346FB71FB7919460348D5
:1043000004F04CFD00BF0837BD4680BD5445002079
:1043100080B582B000AF786039607B68002B03D134
:104320000721074800F09AFF7B6820330A220A2100
:10433000184604F09DFD00BF0837BD4680BD00BF94
:10434000D005010880B582B000AF786039607B6825
:10435000002B03D103210D4800F080FF3B68002BA8
:1043600003D10421094800F079FF3B681B88092B21
:1043700006D1074B1B68184602F0FBFC012300E046
:10438000022318460837BD4680BD00BFD00501088E
:10439000E04E002080B582B000AF0B48FFF7AEFEC4
:1043A0000346002B0BD00848FFF7BBFE0346FB710A
:1043B000064B1B68FA791146184602F0B7FC00BF9D
:1043C0000837BD4680BD00BF00140140E04E00200C
:1043D00080B500AFFFF7DEFF024804F0B6F900BF7A
:1043E00080BD00BFA845002080B586B002AF7860D0
:1043F0003960114BFB6031230093104BFA68104970
:10440000104804F06DF901F0F9F97B68012283F896
:104410003020786800F01EFC786800F0FFFB7868B8
:1044200000F00DFB7B682033184604F037FD00BF19
:104430001037BD4680BD00BF8CFF000894FF000808
:10444000CCFF0008A845002080B584B000AF78609C
:1044500039607B685B69FB607B685B693968786899
:1044600098470346FB72FB7A002B08D1FB6806498C
:10447000786898477B685B6904497868984700BF0B
:104480001037BD4680BD00BFF8050108E4050108EE
:1044900080B586B002AF786039607B68002B03D1AD
:1044A0000021234800F0DAFE78683B685A683B68D0
:1044B0009B68009313461F4A1F4904F055FC7B6814
:1044C00020337A680A21184604F0B0FC3B681A6869
:1044D0007B685A617B68002283F830207B68002269
:1044E00083F844207B68002283F847207B68002201
:1044F00083F848200023FB600EE03A68FB68023333
:104500009B0013445A687968FB680C339B000B448A
:104510005A60FB680133FB60FB68032BEDD97B68B5
:104520002033184604F0BAFC00BF1037BD4680BDEA
:10453000D805010849440008E9430008B0B58AB02D
:1045400002AF12230093022324220B490B4804F0EC
:104550002CF90B4B3C1D1D460FCD0FC495E80700F1
:1045600084E807003B1D19460648FFF791FF00BF8E
:104570002037BD46B0BD00BF485700206C57002013
:10458000E0FF0008E456002080B582B000AF03468B
:10459000FB71FB791946034804F000FC00BF0837A3
:1045A000BD4680BDE456002080B586B002AF78607D
:1045B00039603B681B88012B02D00B2B18D04BE0D5
:1045C000284BFB606C230093274BFA682749284847
:1045D00004F086F87B682033184604F05FFC7868A6
:1045E00000F01CFB786800F02AFA7B6801229A61CF
:1045F0003B689B78042B2DD17B6893F83030002BDF
:1046000009D10121786800F03AFD786800F022FBBA
:10461000786800F003FB7B6893F84630184600F09A
:10462000F3FD03467B817B68B3F94A30B7F90A2072
:104630009A4203DD7B680F4A5A6102E07B680E4AAA
:104640005A617B68203364226421184604F010FC10
:10465000002302E0022300E0012318461037BD4684
:1046600080BD00BF8CFF000894FF0008FCFF00081D
:10467000A84500207D4600082D47000880B586B07B
:1046800002AF786039603B681B880B2B32D00B2B54
:104690003BDC012B02D00A2B16D036E01D4BBB6051
:1046A000952300931C4BBA681C491D4804F018F868
:1046B0007B680022DA610021786800F01BFA7868D4
:1046C00000F05CF9012321E07B6893F8463018463E
:1046D00000F09AFD0346FB817B68B3F94A30B7F9D5
:1046E0000E209A4201DD012310E07B680D4A5A61D9
:1046F00000230BE03B689B78052B04D17B680A4ABA
:104700005A61002302E0022300E00223184610371A
:10471000BD4680BD8CFF000894FF000838000108EA
:10472000A84500202D470008A945000880B586B09F
:1047300002AF786039603B681B880B2B46D00B2B8F
:104740004FDC012B02D00A2B15D04AE0274BBB606F
:10475000BA230093264BBA682649274803F0C0FFC6
:104760007B680022DA61786800F058FA786800F017
:1047700066F9012336E07B6893F84630184600F06E
:1047800043FD0346FB817B68B3F94A30B7F90E203D
:104790009A4204DD7B68194A5A61002322E07B6853
:1047A000DB695A1C7B68DA617B68DB691D2B08D8E2
:1047B0007B68B3F94A301A46B7F90E30D31A0A2B80
:1047C00004DD7B680E4A5A6100230BE03B689B784E
:1047D000052B04D17B680B4A5A61002302E00223B7
:1047E00000E0022318461037BD4680BD8CFF00084C
:1047F00094FF000874000108A84500207D460008C9
:1048000009480008A945000880B586B002AF786065
:1048100039603B681B880B2B2ED00B2B37DC012B10
:1048200002D00A2B12D032E01B4BBB60E023009376
:104830001A4BBA681A491B4803F052FF7B680022E2
:10484000DA61786800F0CDF8012321E07B6893F805
:104850004630184600F0D8FC0346FB817B68B3F96C
:104860004A30B7F90E209A4201DA012310E07B6842
:104870000D4A5A6100230BE03B689B78052B04D15D
:104880007B680A4A5A61002302E0022300E0022307
:1048900018461037BD4680BD8CFF000894FF000805
:1048A000B8000108A8450020B1480008A945000843
:1048B00080B586B002AF786039603B681B880B2BEF
:1048C0003DD00B2B46DC012B02D00A2B13D041E04C
:1048D000234BBB604FF481730093224BBA6822498B
:1048E000224803F0FDFE786800F098F9786800F03F
:1048F000A6F801232FE07B6893F84630184600F0B5
:1049000083FC0346FB817B68B3F94A30B7F90E207C
:104910009A4204DA7B68164A5A6100231BE07B68DE
:10492000DB695A1C7B68DA617B68DB691D2B04D963
:104930007B68104A5A6100230DE001230BE03B68BD
:104940009B78052B04D17B680B4A5A61002302E057
:10495000022300E0022318461037BD4680BD00BF89
:104960008CFF000894FF0008FC000108A845002007
:10497000094800087D460008A945000880B584B0B4
:1049800000AF78607B6893F84730BB730023FB73FC
:104990001FE0BA7BFB7B42FA03F303F00103002B19
:1049A0000AD0FB7B7A680C339B0013445B680121BF
:1049B000184601F001FC09E0FB7B7A680C339B0090
:1049C00013445B680021184601F0F6FBFB7B0133C2
:1049D000FB73FB7B032BDCD900BF00BF1037BD4648
:1049E00080BD80B584B000AF78607B6893F84930B3
:1049F000BB737B6893F848307B730023FB7316E02E
:104A00007A7BFB7B42FA03F303F00103002B07D010
:104A1000FB7BBA7B92B21146184600F063FC03E0C0
:104A2000FB7B184600F0A0FCFB7B0133FB73FB7B98
:104A3000032BE5D900BF00BF1037BD4680BD80B550
:104A400084B000AF78600023FB7306E0FB7B184660
:104A500000F08AFCFB7B0133FB73FB7B032BF5D956
:104A600000BF00BF1037BD4680BD80B483B000AF2B
:104A700078607B68B3F84C3018460C37BD465DF85B
:104A8000047B704780B588B000AF786007F10C03F5
:104A900000221A605A609A60DA601A820B23BB8186
:104AA0000423BB737B6807F10C021146184604F01F
:104AB0009FF9002318462037BD4680BD80B588B0D9
:104AC00000AF786007F10C0300221A605A609A6008
:104AD000DA601A820B23BB810523BB737B6807F165
:104AE0000C021146184604F083F9002318462037BB
:104AF000BD4680BD2DE9F04F8DB000AFF861B961C2
:104B0000FB6993F8473087F82B30FB69B3F84C30DA
:104B10003B850023FB6278E097F82B20FB6A42FA82
:104B200003F303F00103002B6CD0FA69FB6A0C332A
:104B30009B0013445B689B7E87F8273097F82730EB
:104B4000DBB203F00103002B08D1FA69FB6A0C33D6
:104B50009B0013445B68184601F093FBFA69FB6AFB
:104B60000C339B0013445B689B7E87F82730FA69FF
:104B7000FB6A0C339B0013445B687B60BB69DEB24D
:104B80003B8D00229A46934652465B464FF000000A
:104B90004FF00001590141EAD261500102460B4633
:104BA000B2EB0A0463EB0B054FF000024FF0000379
:104BB0006B0243EAD453620214461D4614EB0A0802
:104BC00045EB0B094FF000024FF000034FEA891349
:104BD00043EA98634FEA8812B2EB0801B96063EBCD
:104BE0000902FA60D7E90201024612EB0A023A61B1
:104BF0000A4642EB0B027A61D7E904233146786812
:104C000001F01EFCFB6A0133FB62FB6A032B83D9B4
:104C100000BF00BF3437BD46BDE8F08F80B584B01B
:104C200000AF78600023FB600CE07A68FB680C330F
:104C30009B0013445B680021184601F0BDFAFB6835
:104C40000133FB60FB68032BEFD900BF00BF1037B7
:104C5000BD4680BD80B584B000AF78600023FB60A6
:104C60000BE07A68FB680C339B0013445B681846C2
:104C700001F007FBFB680133FB60FB68032BF0D9F5
:104C800000BF00BF1037BD4680BD80B584B000AF07
:104C9000786039603B68032B01D9062311E07A68FC
:104CA0003B680C339B0013445B68184601F0E9FA3B
:104CB0000346FB7397F90F30002B01D0012300E06E
:104CC000002318461037BD4680BD80B586B000AFC2
:104CD000F860B9601346FB71BB68032B01D906234A
:104CE00013E0FA68BB680C339B0013445B68FA79E5
:104CF0001146184601F060FA0346FB7597F9173024
:104D0000002B01D0012300E0002318461837BD46D0
:104D100080BD000080B483B000AF78607B685B69C1
:104D2000054A93420CBF01230023DBB218460C371F
:104D3000BD465DF8047B7047A945000880B483B088
:104D400000AF78600B46FB70FB78032B01D906237C
:104D50000FE07B6893F847305AB2FB78012101FAE3
:104D600003F35BB213435BB2DAB27B6883F847208C
:104D7000002318460C37BD465DF8047B704780B4AD
:104D800083B000AF78600B46FB70FB78032B01D932
:104D9000062311E07B6893F847305AB2FB78012173
:104DA00001FA03F35BB2DB435BB213405BB2DAB2EE
:104DB0007B6883F84720002318460C37BD465DF812
:104DC000047B704780B483B000AF78607B6893F851
:104DD000473018460C37BD465DF8047B704780B4F9
:104DE00083B000AF78600B467B807B88B3F5FA7F99
:104DF00004D37B8840F6B832934201D9062304E0FD
:104E00007B687A88A3F84C20002318460C37BD46EF
:104E10005DF8047B704780B483B000AF78600B46C8
:104E2000FB70FB78642B01D9062304E07B68FA78D9
:104E300083F84920002318460C37BD465DF8047BF3
:104E4000704780B483B000AF78607B6893F84930D6
:104E500018460C37BD465DF8047B704780B483B0BC
:104E600000AF78600B46FB70FB78032B01D906235B
:104E70000FE07B6893F848305AB2FB78012101FAC1
:104E800003F35BB213435BB2DAB27B6883F848206A
:104E9000002318460C37BD465DF8047B704780B48C
:104EA00083B000AF78600B46FB70FB78032B01D911
:104EB000062311E07B6893F848305AB2FB78012151
:104EC00001FA03F35BB2DB435BB213405BB2DAB2CD
:104ED0007B6883F84820002318460C37BD465DF8F0
:104EE000047B704780B483B000AF78607B6893F830
:104EF000483018460C37BD465DF8047B704780B4D7
:104F000083B000AF78600B46FB70FB78072B01D9AC
:104F1000062304E07B68FA7883F8462000231846CD
:104F20000C37BD465DF8047B704780B483B000AF9A
:104F300078600B467B807B687A88A3F84A2000BFA4
:104F40000C37BD465DF8047B704780B483B000AF7A
:104F500078607B68B3F94A3018460C37BD465DF877
:104F6000047B704780B483B000AF78607B6893F8AF
:104F7000463018460C37BD465DF8047B70472DE976
:104F8000F04F8BB000AFF861B9617A617B82BB6989
:104F9000032B01D906236DE0FA69BB690C339B0032
:104FA00013445B689B7E87F8273097F8273003F01F
:104FB0000103002B0DD0FA69BB690C339B0013442D
:104FC0005B68184601F05DF90346002B01D0012310
:104FD00050E0FA69BB690C339B0013445E687B693F
:104FE0005FFA83FC7B8A00229A46934652465B46D0
:104FF0004FF000004FF00001590141EAD261500129
:1050000002460B46B2EB0A0463EB0B054FF00002BD
:105010004FF000036B0243EAD453620214461D466C
:1050200014EB0A0845EB0B094FF000024FF00003A8
:105030004FEA891343EA98634FEA8812B2EB0801FA
:10504000396063EB09037B60D7E900120B4613EB71
:105050000A03BB60134643EB0B03FB60D7E9022353
:105060006146304601F0ECF90346002B01D00123E4
:1050700000E0002318462C37BD46BDE8F08F80B510
:1050800082B000AF786039603B68002B06D000F03A
:10509000B5FB7B68012283F8302005E000F0BAFB05
:1050A0007B68002283F8302000BF0837BD4680BDF2
:1050B00080B483B000AF78607B6893F83030002B09
:1050C00014BF01230023DBB218460C37BD465DF840
:1050D000047B704780B582B000AF786039607B6830
:1050E00014330A220A21184603F0C2FE00BF083713
:1050F000BD4680BD80B584B002AF786039607B6802
:10510000002B03D100210E4800F0A8F878683B6816
:105110005A683B689B68009313460A4A0A4903F0A1
:1051200023FE7B6814337A680D21184603F07EFE57
:105130003B681A687B685A6200BF0837BD4680BD6D
:105140000C060108B1510008D550000880B586B0A2
:1051500002AF02230093042308220949094803F0FF
:1051600024FB094A3B1D07CA83E807003B1D19467B
:105170000648FFF7BFFF00BF1037BD4680BD00BF28
:10518000C4570020CC5700203C010108885700205C
:1051900080B582B000AF0346FB71FB791946034826
:1051A00003F0FCFD00BF0837BD4680BD88570020D6
:1051B00090B585B000AF786039603B681B880C2BD8
:1051C00002D00D2B17D01AE00023FB730EE0FB7BFF
:1051D000FC7B184600F04CFA034619467B6804F144
:1051E000140223F81210FB7B0133FB73FB7B072BAC
:1051F000EDD9012304E000F02DFA012300E00223A1
:1052000018461437BD4690BD80B483B000AF7860B7
:10521000054A7B68143332F9133018460C37BD4603
:105220005DF8047B704700BF8857002080B400AF52
:10523000054B1B68044A43F00203136000BFBD46E0
:105240005DF8047B704700BF10E000E080B400AF61
:1052500062B600BFBD465DF8047B704780B483B082
:1052600000AF7860396072B600BF0C37BD465DF89C
:10527000047B704780B483B000AF786039607B688E
:105280003A685A6300BF0C37BD465DF8047B70472F
:1052900080B483B000AF786039607B683A689A6305
:1052A00000BF0C37BD465DF8047B704780B483B007
:1052B00000AF786039607B683A68DA6300BF0C370A
:1052C000BD465DF8047B704780B483B000AF786062
:1052D00039607B683A681A6400BF0C37BD465DF8D8
:1052E000047B704780B584B000AF78600B467B804C
:1052F0007B88642B01D964237B807B881A4652010A
:10530000D21A920013449B00FB817B68032B23D8A5
:1053100001A252F823F000BF2953000835530008BA
:10532000415300084D530008FB8919460D48FFF70B
:10533000A1FF12E0FB8919460A48FFF7A9FF0CE01C
:10534000FB8919460748FFF7B1FF06E0FB891946BC
:105350000448FFF7B9FF00E000BF00BF1037BD46AB
:1053600080BD00BF0008004080B582B000AF78600B
:105370007B68032B1ED801A252F823F08D5300083E
:1053800097530008A1530008AB53000800210C48B4
:10539000FFF770FF0FE000210948FFF779FF0AE0EF
:1053A00000210748FFF782FF05E000210448FFF7CE
:1053B0008BFF00E000BF00BF0837BD4680BD00BFC7
:1053C0000008004080B483B000AF78607B681B6841
:1053D00043F040027B681A6000BF0C37BD465DF8A1
:1053E000047B704780B483B000AF78607B681B6833
:1053F00023F040027B681A6000BF0C37BD465DF8A1
:10540000047B704780B483B000AF786039607B68FC
:105410001B6823F001023B681A437B681A6000BFD7
:105420000C37BD465DF8047B704780B483B000AF95
:10543000786039607B681B6823F002023B681A437E
:105440007B681A6000BF0C37BD465DF8047B70476F
:1054500080B582B000AF0346FB711E48FFF7C2FF64
:10546000FB79032B2ED801A252F823F07D540008BB
:105470008F540008A1540008B354000800211548B7
:10548000FFF7D3FF00211348FFF7BCFF1AE000210C
:105490001048FFF7CAFF01210E48FFF7B3FF11E0E4
:1054A00002210C48FFF7C1FF00210A48FFF7AAFFBD
:1054B00008E002210748FFF7B8FF01210548FFF780
:1054C000A1FF00BF0348FFF77DFF00BF0837BD46BF
:1054D00080BD00BF0034014080B582B002AF002023
:1054E000FFF7B6FF4FF480530193104B0093042352
:1054F0000E4A0F490F4801F08BFA0120FFF7A8FF71
:10550000062300934FF480630B4A09490B4800F0CF
:1055100060FA012300934FF40043074A0449084806
:1055200000F057FA00BFBD4680BD00BF0004024036
:1055300000340140E85700200010024000580020CD
:105540002058002080B582B000AF78607B68DBB265
:105550001946034800F09EFA00BF0837BD4680BDDB
:105560000058002080B500AF024800F003FB00BFE8
:1055700080BD00BF0058002080B582B000AF7860C9
:105580007B68DBB21946034800F084FA00BF083795
:10559000BD4680BD2058002080B500AF024800F015
:1055A000E9FA00BF80BD00BF2058002080B582B05E
:1055B00000AF78607B68642B01D964237B607A68D4
:1055C00013461B029B1A074AA2FB03235B09DBB2AB
:1055D0001A460021044801F007FA00BF0837BD460B
:1055E00080BD00BF1F85EB51E857002080B582B019
:1055F00000AF78607B68642B01D964237B607A6894
:1056000013461B029B1A074AA2FB03235B09DBB26A
:105610001A460021044801F0E7F900BF0837BD46EB
:1056200080BD00BF1F85EB51E857002080B582B0D8
:1056300000AF786039607B68002B03D13868FFF7D2
:10564000B5FF02E03868FFF7D1FF00BF0837BD465D
:1056500080BD000080B500AF08220349034803F075
:1056600013FD00BF80BD00BF405800204043002014
:1056700080B582B000AF7860054A7B6832F813309D
:10568000184601F07FFA034618460837BD4680BD2C
:105690004058002080B584B000AF78607B68254A10
:1056A000934242D1244B1B68002B11D00023FB6096
:1056B0000AE0224AFB6832F81310214AFB6822F8FC
:1056C0001310FB680133FB60FB68072BF1D91BE06B
:1056D0000023BB6015E0194ABB6832F81330194645
:1056E000174ABB6832F813300B44002B00DA013341
:1056F0005B1099B2124ABB6822F81310BB680133E1
:10570000BB60BB68072BE6D90E4B1B68092B05D87D
:105710000C4B1B6801330B4A136006E0094B002257
:105720001A600949094803F063FB00BF1037BD4602
:1057300080BD00BF404300200C00002040580020E6
:10574000505800206058002020060108885700208B
:1057500080B485B000AF78600B467B807B680C33EB
:10576000FB60FB687A881A8000BF1437BD465DF87D
:10577000047B704780B500AF0E4B4FF400729A6106
:105780000C4B4FF080629A610A4B4FF000729A61A5
:105790004AF6AA210848FFF7DBFF064B4FF4806268
:1057A0009A61064B1B69054A23F00103136100BF90
:1057B00080BD00BF000C02400038004000000140E6
:1057C00080B483B000AF786039607B683A689A61D2
:1057D00000BF0C37BD465DF8047B704780B483B0D2
:1057E00000AF786039603B681A047B689A6100BF3B
:1057F0000C37BD465DF8047B7047000080B500AFF4
:1058000010210348FFF7DCFF0023184680BD00BFCE
:10581000000C024080B500AF10210348FFF7DEFF07
:105820000023184680BD00BF000C024080B483B046
:1058300000AF78607B681B6843F040027B681A60A9
:1058400000BF0C37BD465DF8047B704780B483B061
:1058500000AF78607B681B6803F04003402B01D1E8
:10586000012300E0002318460C37BD465DF8047B99
:10587000704780B483B000AF78607B689B6803F0AA
:105880000203022B01D1012300E0002318460C374C
:10589000BD465DF8047B704780B483B000AF78608C
:1058A0007B689B6803F08003802B01D1012300E01B
:1058B000002318460C37BD465DF8047B704780B462
:1058C00083B000AF78607B680C331B78DBB218467E
:1058D0000C37BD465DF8047B704780B485B000AFDF
:1058E00078600B46FB707B680C33FB60FB68FA78D2
:1058F0001A7000BF1437BD465DF8047B704780B452
:1059000083B000AF786039607B683A689A6100BF05
:105910000C37BD465DF8047B704780B483B000AFA0
:10592000786039603B681A047B689A6100BF0C3765
:10593000BD465DF8047B704780B584B000AF7860E9
:1059400000BF7B681B681846FFF793FF0346002BD8
:10595000F7D07B685A687B689B6819461046FFF74A
:10596000DCFF7B681B7B013BFB6023E07B681868E6
:105970007A68FB6813440D331B781946FFF7ADFFB7
:1059800000BF7B681B681846FFF773FF0346002BB8
:10599000F7D000BF7B681B681846FFF77DFF034602
:1059A000002BF7D17B681B681846FFF788FFFB6860
:1059B000013BFB60FB68002BD8DA7B685A687B6888
:1059C0009B6819461046FFF79AFF00BF1037BD4687
:1059D00080BD80B58CB000AFF860B9607A603B6084
:1059E000FB68BA681A60FB6897F838201A73FB687E
:1059F0007A685A60FB683A689A6007F114030022DB
:105A00001A605A609A60DA601A615A61FB689B6892
:105A10007B610123BB610223FB6100233B62002306
:105A20007B62FB685B6807F114021146184605F0BB
:105A30003CF9FB685A68FB689B6819461046FFF7FB
:105A40005EFF0023FB6208E0FA68FB6A13440D3333
:105A500000221A70FB6A0133FB62FB681B7B1A464B
:105A6000FB6A9342F0DB05E0FB681B681846FFF712
:105A7000DDFE00BFFB681B681846FFF7E7FE034624
:105A8000002BF1D0F868FFF757FF00BF3037BD4655
:105A900080BD000080B584B000AF78600B46FB701D
:105AA000FB78242B03D97B681B7B062B5AD0FB7811
:105AB000082B03D97B681B7B012B55D07B681B7B94
:105AC000062B38D10023FB6008E07A68FB6813449A
:105AD0000D3300221A70FB680133FB607B681B7B6F
