:020000040800F2
:1000000000000820FD300008712E0008792E00083D
:10001000812E0008892E0008912E000800000000A3
:10002000000000000000000000000000992E000801
:10003000A72E000800000000B52E0008C32E0008FF
:100040004D3100084D3100084D3100084D31000898
:100050004D3100084D3100084D3100084D31000888
:100060004D3100084D3100084D3100084D31000878
:10007000D32E00084D3100084D3100084D310008E5
:100080004D3100084D3100084D3100084D31000858
:100090004D3100084D3100084D3100084D31000848
:1000A0004D310008555A00084D3100084D31000807
:1000B0004D3100084D3100084D3100084D31000828
:1000C0004D3100084D3100084D3100084D31000818
:1000D0004D3100084D3100084D3100084D31000808
:1000E000A95A00084D3100084D3100084D31000873
:1000F0004D3100084D3100084D3100084D310008E8
:100100004D3100084D3100084D3100084D310008D7
:100110004D3100084D3100084D3100084D310008C7
:10012000E12E00084D3100084D3100084D31000826
:100130004D3100084D3100084D3100084D310008A7
:100140004D3100084D3100084D3100084D31000897
:10015000F52E0008052F00084D310008412F00083A
:100160004D3100084D3100084D3100084D31000877
:100170004D3100084D3100084D31000800000000ED
:100180004D3100084D3100084D3100084D31000857
:100190004D3100084D3100084D3100084D31000847
:1001A00000000000000000004D3100084D31000843
:1001B0004D3100084D3100084D3100084D31000827
:1001C0004D3100084D310008000000004D3100089D
:1001D0004D3100084D3100084D3100084D31000807
:1001E0004D3100084D3100084D3100084D310008F7
:0801F000000000004D31000881
:1002000010B5054C237833B9044B13B10448AFF350
:1002100000800123237010BD28430020000000004F
:100220003CFC000808B5034B1BB103490348AFF37E
:10023000008008BD000000002C4300203CFC0008AA
:1002400010F8012B11F8013B012A28BF9A42F7D080
:10025000D01A7047000000000000000000000000FD
:1002600001F0FF01102A2BDB10F0070F08D010F867
:10027000013B013A8B422DD010F0070F42B3F6D16B
:10028000F0B441EA012141EA014122F007047FF084
:1002900000070023F0E80256083C85EA010586EADB
:1002A000010685FA47F5A3FA87F586FA47F6A5FA17
:1002B00087F68EB9EED1F0BC01F0FF0102F0070223
:1002C00032B110F8013B013A83EA010313B1F8D1CE
:1002D0000020704701387047002D06BF35460338AF
:1002E000073815F0010F07D1013015F4807F02BFE8
:1002F000013015F4C03F0130F0BC0138704700BF39
:10030000034613F8012B002AFBD1181A0138704755
:100310007BB972B90029BEBF00204FF0004106E052
:1003200008BF00281CBF6FF000414FF0FF3000F005
:10033000BBB9ADF1080C6DE904CE002909DB002B37
:100340001ADB00F035F8DDF804E0DDE9022304B043
:100350007047404261EB4101002B1BDB00F028F8A5
:10036000DDF804E0DDE9022304B0404261EB410125
:10037000524263EB43037047524263EB430300F086
:1003800017F8DDF804E0DDE9022304B0404261EB38
:1003900041017047524263EB430300F009F8DDF876
:1003A00004E0DDE9022304B0524263EB43037047EB
:1003B0002DE9F047089D8E4604468846002B4AD119
:1003C0008A42174662D9B2FA82F64EB1C6F12003CC
:1003D00001FA06F820FA03F3B74043EA0808B440EC
:1003E0004FEA174E1FFA87FCB8FBFEF1230C0EFBF9
:1003F000118843EA084301FB0CF29A4209D9FB1821
:1004000001F1FF3080F0EA809A4240F2E780023941
:100410003B449A1AA3B2B2FBFEF00EFB102243EA51
:10042000024300FB0CFC9C4509D9FB1800F1FF328C
:1004300080F0D6809C4540F2D3803B44023840EAAD
:100440000140A3EB0C0300211DB1F3400022C5E9DC
:100450000032BDE8F0878B4205D90DB1C5E9000136
:1004600000210846F5E7B3FA83F1002946D1734528
:1004700002D3824200F20581841A6EEB030201204E
:100480009046002DE5D0C5E90048E2E7002A00F0DB
:100490009080B2FA82F6002E40F0A4808A1A030CF3
:1004A0004FEA174E80B2BCB20121B2FBFEFC0EFB3C
:1004B0001C2243EA024304FB0CF29A4207D9FB18C0
:1004C0000CF1FF3802D29A4200F2E080C4469B1A37
:1004D000B3FBFEF20EFB123340EA034302FB04F4CB
:1004E0009C4207D9FB1802F1FF3002D29C4200F275
:1004F000CA8002461B1B42EA0C40A5E7C1F1200658
:100500008B4022FA06F71F430EFA01F420FA06F395
:100510002EFA06FE4FEA1749234300FA01F81FFAA4
:1005200087FCBEFBF9F01C0C09FB10EE44EA0E44FC
:1005300000FB0CFEA64502FA01F209D93C1900F1B4
:10054000FF3A80F09C80A64540F2998002383C44F6
:10055000A4EB0E041FFA83FEB4FBF9F309FB13446A
:100560004EEA044403FB0CFCA44508D93C1903F1F2
:10057000FF3E80F08280A4457FD9023B3C4443EAA1
:100580000040A4EB0C04A0FB02EC64457346E1467A
:1005900062D35FD05DB1B8EB030264EB090404FAE7
:1005A00006F622FA01F31E43CC40C5E9006400219F
:1005B0004FE7B1FBF2FC010C41EA0E4180B240EA88
:1005C00001423B4638463C46B846BE462026B1FB73
:1005D000F7F1A2EB080241EA0C4166E7014618E791
:1005E00010462CE7C6F120022EFA02F3B740B140C4
:1005F00020FA02F24FEA174E0A43B3FBFEF8BCB2F0
:100600000EFB1833110C41EA034108FB04F9B0401A
:1006100089454FEA104380B23ED9791808F1FF3C72
:1006200001D289451FD8A1EB0901B1FBFEF909FBF5
:1006300004F80EFB191192B242EA0142424529D256
:10064000BA1809F1FF31C4D24245C2D2A9F1020160
:100650003A44BEE7F0459DD2BEEB02036CEB070CBB
:100660000138E14696E7A7EB09094944A8F1020CD5
:10067000B1FBFEF909FB04F8DBE773467FE7504660
:1006800066E70846FDE63B44023A33E7ACF1020C6C
:100690003B441CE749469CE7A1EB0901C446B1FB7A
:1006A000FEF909FB04F8C4E7704700BF80B400AF4F
:1006B000044BDB681B0A03F007031846BD465DF8D0
:1006C000047B704700ED00E080B483B000AF0346C8
:1006D000FB7197F90730002B0BDBFB7903F01F024E
:1006E000074997F907305B09012000FA02F241F847
:1006F000232000BF0C37BD465DF8047B704700BF68
:1007000000E100E080B483B000AF03463960FB71C4
:1007100097F90730002B0ADB3B68DAB20C4997F9EE
:1007200007301201D2B20B4483F800230AE03B6881
:10073000DAB20849FB7903F00F03043B1201D2B28D
:100740000B441A7600BF0C37BD465DF8047B70473A
:1007500000E100E000ED00E080B489B000AFF86097
:10076000B9607A60FB6803F00703FB61FB69C3F1C2
:100770000703042B28BF0423BB61FB690433062B4A
:1007800002D9FB69033B00E000237B614FF0FF329D
:10079000BB6902FA03F3DA43BB681A407B699A40EB
:1007A0004FF0FF317B6901FA03F3D9437B680B40BB
:1007B000134318462437BD465DF8047B704700009C
:1007C00080B485B000AFF860B9607A600D4ABB684C
:1007D00013441B781A46FB6813441B6823F0C002BD
:1007E0000849BB680B441B781946FB680B44194643
:1007F0007B6813430B6000BF1437BD465DF8047B74
:10080000704700BF180F010880B485B000AFF860D2
:10081000B9607A600D4ABB6813441B781A46FB68BE
:1008200013441B6823F490720849BB680B441B787F
:100830001946FB680B4419467B6813430B6000BFE5
:100840001437BD465DF8047B704700BF180F0108E0
:1008500080B485B000AFF860B9607A600D4ABB68BB
:1008600013441B781A46FB6813441B6823F4007278
:100870000849BB680B441B781946FB680B441946B2
:100880007B6813430B6000BF1437BD465DF8047BE3
:10089000704700BF180F010880B485B000AFF86042
:1008A000B9607A600D4ABB6813441B781A46FB682E
:1008B00013441B6823F480620849BB680B441B780F
:1008C0001946FB680B4419467B6813430B6000BF55
:1008D0001437BD465DF8047B704700BF180F010850
:1008E00080B485B000AFF860B9607A600D4ABB682B
:1008F00013441B781A46FB6813441B6823F4C05248
:100900000849BB680B441B781946FB680B44194621
:100910007B6813430B6000BF1437BD465DF8047B52
:10092000704700BF180F010880B485B000AFF860B1
:10093000B9607A600D4ABB6813441B781A46FB689D
:1009400013441B6823F4C0420849BB680B441B785E
:100950001946FB680B4419467B6813430B6000BFC4
:100960001437BD465DF8047B704700BF180F0108BF
:1009700080B485B000AFF860B9607A600D4ABB689A
:1009800013441B781A46FB6813441B6823F4403257
:100990000849BB680B441B781946FB680B44194691
:1009A0007B6813430B6000BF1437BD465DF8047BC2
:1009B000704700BF180F010880B485B000AFF86021
:1009C000B9607A600D4ABB6813441B781A46FB680D
:1009D00013441B6823F0F0520849BB680B441B7892
:1009E0001946FB680B4419467B6813430B6000BF34
:1009F0001437BD465DF8047B704700BF180F01082F
:100A000080B483B000AF786039600C4A3B6813440F
:100A10001B781A467B6813445B6908493A680A44A4
:100A2000127811467A680A4423F00403536100BF28
:100A30000C37BD465DF8047B704700BF180F0108F6
:100A400080B483B000AF78607B681B6843F001021C
:100A50007B681A6000BF0C37BD465DF8047B7047A9
:100A600080B483B000AF78607B681B6823F40032E9
:100A70007B681A6000BF0C37BD465DF8047B704789
:100A800080B483B000AF78607B681B6823F40022D9
:100A90007B681A6000BF0C37BD465DF8047B704769
:100AA00080B485B000AFF860B9607A60FB68DA683E
:100AB000064B1340B9687A680A431A43FB68DA6048
:100AC00000BF1437BD465DF8047B704701F8FFFF97
:100AD00080B483B000AF78607B68DB6823F40042A9
:100AE0007B68DA6000BF0C37BD465DF8047B704759
:100AF00080B483B000AF78607B685B6843F00072BD
:100B00007B685A6000BF0C37BD465DF8047B7047B8
:100B100080B400AF054B1B68044A43F48033136074
:100B200000BFBD465DF8047B704700BF003802403F
:100B300080B400AF074B1B6803F40033B3F5003FEC
:100B40000CBF01230023DBB21846BD465DF8047BD1
:100B5000704700BF0038024080B483B000AF7860B7
:100B6000064B9B6823F0030204497B6813438B60A8
:100B700000BF0C37BD465DF8047B7047003802406B
:100B800080B400AF044B9B6803F00C031846BD46CD
:100B90005DF8047B704700BF0038024080B483B02A
:100BA00000AF7860064B9B6823F0F00204497B6835
:100BB00013438B6000BF0C37BD465DF8047B704764
:100BC0000038024080B483B000AF7860064B9B6869
:100BD00023F4E05204497B6813438B6000BF0C3759
:100BE000BD465DF8047B70470038024080B483B096
:100BF00000AF7860064B9B6823F4604204497B6831
:100C000013438B6000BF0C37BD465DF8047B704713
:100C10000038024080B483B000AF7860094BD3F84D
:100C200090207B681B0CDB431A407B689BB2054914
:100C30001343C1F8903000BF0C37BD465DF8047B0C
:100C4000704700BF0038024080B483B000AF7860C6
:100C5000094BD3F890207B681B0CDB431A407B6860
:100C60009BB205491343C1F8903000BF0C37BD4615
:100C70005DF8047B704700BF0038024080B483B049
:100C800000AF7860094BD3F890207968084B0B408F
:100C9000DB431A407B681B0404491343C1F89030BE
:100CA00000BF0C37BD465DF8047B7047003802403A
:100CB0000000FFFF80B483B000AF7860074BD3F82B
:100CC0008C3023F0807205497B681343C1F88C3067
:100CD00000BF0C37BD465DF8047B7047003802400A
:100CE00080B400AF054B1B68044A43F08073136067
:100CF00000BFBD465DF8047B704700BF003802406E
:100D000080B400AF074B1B6803F00073B3F1007FA2
:100D10000CBF01230023DBB21846BD465DF8047BFF
:100D2000704700BF0038024080B485B000AFF86063
:100D3000B9607A603B600A4B5A680A4B1340F96805
:100D4000BA6811437A68920111433A680A43044928
:100D500013434B6000BF1437BD465DF8047B7047FA
:100D6000003802400080BCFF80B485B000AF7860DE
:100D7000084B1A6B07497B6813430B63054B1A6BCF
:100D80007B681340FB60FB6800BF1437BD465DF80D
:100D9000047B70470038024080B485B000AF7860B3
:100DA000084B1A6C07497B6813430B64054B1A6C9C
:100DB0007B681340FB60FB6800BF1437BD465DF8DD
:100DC000047B70470038024080B485B000AF786083
:100DD000084B5A6C07497B6813434B64054B5A6CAC
:100DE0007B681340FB60FB6800BF1437BD465DF8AD
:100DF000047B70470038024080B485B000AF786053
:100E00003960134A3B68DBB2023352F823203B6857
:100E10001B0CDB4302EA03013B681B0CFB60FB6815
:100E200093FAA3F3BB60BB68B3FA83F3DBB21A4651
:100E30007B6803FA02F206483B68DBB20A430233DE
:100E400040F8232000BF1437BD465DF8047B70478F
:100E50000038014080B483B000AF7860064B1B6857
:100E600023F00F0204497B6813430B6000BF0C376B
:100E7000BD465DF8047B7047003C024080B400AF83
:100E8000044B1B6803F00F031846BD465DF8047B56
:100E9000704700BF003C024080B400AF054B1B68A8
:100EA000044A43F48033136000BFBD465DF8047B01
:100EB000704700BF0070004080B483B000AF78601E
:100EC000064B1B6823F4404204497B6813430B60C4
:100ED00000BF0C37BD465DF8047B704700700040D2
:100EE00080B400AF074B5B6803F48043B3F5804FD9
:100EF0000CBF01230023DBB21846BD465DF8047B1E
:100F0000704700BF0070004080B483B000AF7860CD
:100F10007B681B6843F040027B681A6000BF0C3797
:100F2000BD465DF8047B704780B483B000AF786045
:100F300039607B685B6823F010023B681A437B686A
:100F40005A6000BF0C37BD465DF8047B704780B423
:100F500083B000AF78607B685B6843F008027B6811
:100F60005A6000BF0C37BD465DF8047B704780B403
:100F700083B000AF78607B685B6823F008027B6811
:100F80005A6000BF0C37BD465DF8047B704780B4E3
:100F900083B000AF78607B681B6823F080027B68B9
:100FA0001A6000BF0C37BD465DF8047B7047000037
:100FB00080B485B000AF786039603B68012B28D0E1
:100FC0003B68042B23D03B68102B1ED03B68402B82
:100FD00019D03B68B3F5807F13D03B68B3F5806FC1
:100FE0000DD03B68B3F5805F07D03B68B3F5803F19
:100FF00001D107230EE008230CE006230AE00523B5
:1010000008E0042306E0032304E0022302E00123B6
:1010100000E00023FB737B6818331946FB7B0B4A07
:10102000D35C0B44BB60BB681A68FB7B0849CB5C94
:10103000194604238B40DB431A40BB681A6000BF8B
:101040001437BD465DF8047B704700BF200F0108D0
:101050002C0F010880B485B000AF786039603B6820
:10106000012B28D03B68042B23D03B68102B1ED0CB
:101070003B68402B19D03B68B3F5807F13D03B68A9
:10108000B3F5806F0DD03B68B3F5805F07D03B6848
:10109000B3F5803F01D107230EE008230CE00623BF
:1010A0000AE0052308E0042306E0032304E002230A
:1010B00002E0012300E00023FB737B68183319462C
:1010C000FB7B0A4AD35C0B44BB60BB681A68FB7BA2
:1010D0000749CB5C194608238B401A43BB681A604A
:1010E00000BF1437BD465DF8047B7047200F010830
:1010F0002C0F010880B483B000AF786039607B6842
:101100009A68064B13403A681A437B689A6000BF9E
:101110000C37BD465DF8047B704700BFF8BFFEFF8B
:1011200080B483B000AF786039607B685B6823F07F
:1011300070023B681A437B685A6000BF0C37BD469B
:101140005DF8047B704780B483B000AF78607B6843
:101150009B6823F080027B689A6000BF0C37BD4615
:101160005DF8047B704780B483B000AF78607B6823
:101170001B6843F001027B681A6000BF0C37BD4654
:101180005DF8047B704780B483B000AF786039604D
:101190007B681B6823F4F8123B681B041A437B68C6
:1011A0001A6000BF0C37BD465DF8047B704780B401
:1011B00083B000AF786039607B681B6823F0787279
:1011C0003B685B051A437B681A6000BF0C37BD465D
:1011D0005DF8047B704780B483B000AF78607B68B3
:1011E0009B6843F480427B689A6000BF0C37BD4621
:1011F0005DF8047B704780B483B000AF78603960DD
:101200007B689B6823F400423B681A437B689A60C2
:1012100000BF0C37BD465DF8047B704780B483B0D7
:1012200000AF78607B685B6823F490427B685A600B
:101230007B689B6823F02A027B689A6000BF0C37AA
:10124000BD465DF8047B704780B489B000AFF8609C
:10125000B9607A60FB681A68BB687B617B6993FA46
:10126000A3F33B613B69B3FA83F3DBB25B00032179
:1012700001FA03F3DB431A40BB68FB61FB6993FA95
:10128000A3F3BB61BB69B3FA83F3DBB25B0079689C
:1012900001FA03F31A43FB681A6000BF2437BD4606
:1012A0005DF8047B704780B489B000AFF860B96026
:1012B0007A60FB68DA68BB687B617B6993FAA3F3A9
:1012C0003B613B69B3FA83F3DBB25B00032101FAB4
:1012D00003F3DB431A40BB68FB61FB6993FAA3F39A
:1012E000BB61BB69B3FA83F3DBB25B00796801FAD7
:1012F00003F31A43FB68DA6000BF2437BD465DF88C
:10130000047B704780B483B000AF786039607B683D
:101310003A689A6100BF0C37BD465DF8047B7047A0
:1013200080B483B000AF786039603B681A047B6892
:101330009A6100BF0C37BD465DF8047B704780B5ED
:10134000B0B000AF08F02AFB00F0D0F801F04CF983
:1013500001F006F900F076FA00F0E8FA00F05AFB26
:1013600000F0E4FB00F094FC00F014F900F00EFD36
:1013700000F0BAFE00F092FF00F086FD00F0F4FFEE
:1013800001F07AF800F0BAF900F00AFA00F058FE1D
:1013900004F09AFB07F1A80300221A605A6007F1D3
:1013A000A803184604F0BEFB07F1A803184604F092
:1013B000B9FB3B1D6E22002118460CF085FC002372
:1013C000C7F8BC300EE0D7F8BC30D9B207F17402D0
:1013D000D7F8BC3013440A461A70D7F8BC30013332
:1013E000C7F8BC30D7F8BC30312BECD907F1740307
:1013F0001A463221002004F071FB00BF04F0A0FB6C
:101400000346002BFAD007F174031A46322132202A
:1014100004F064FB00BF04F093FB0346002BFAD0FA
:101420000023C7F8B8300AE03A1DD7F8B8301344A3
:1014300000221A70D7F8B8300133C7F8B830D7F89F
:10144000B830632BF0D93B1D1A466421002004F00C
:1014500057FB00BF04F074FB0346002BFAD00023B7
:10146000C7F8B4300AE03A1DD7F8B430134400226C
:101470001A70D7F8B4300133C7F8B430D7F8B430A5
:10148000632BF0D93B1D1A463221322004F038FB81
:1014900000BF04F055FB0346002BFAD00023C7F829
:1014A000B0300AE03A1DD7F8B030134400221A7069
:1014B000D7F8B0300133C7F8B030D7F8B030632B6D
:1014C000F0D93B1D1A463221002004F019FB00BF61
:1014D00004F036FB0346002BFAD001F038FE01F091
:1014E00042FE01F050FE00BFFDE7000080B500AFF6
:1014F0000620FFF7AFFC00BFFFF7C0FC0346062B3A
:10150000FAD14FF44040FFF7D7FCFFF7C5FCFFF7D7
:10151000FFFA00BFFFF70CFB0346012BFAD10023B3
:10152000C0220C214FF48000FFF7FEFBFFF7D8FB31
:1015300000BFFFF7E5FB0346012BFAD100BFFFF721
:10154000CFFC0346002BFAD00020FFF727FB4FF417
:10155000A050FFF737FB4FF40040FFF747FB022096
:10156000FFF7FAFA00BFFFF70BFB0346082BFAD18F
:1015700007480BF03BFC0F2008F01EFA0346002B37
:1015800001D001F0FFFA0020FFF794FB00BF80BDFF
:1015900000C2EB0B80B584B000AF3B4600221A605E
:1015A0005A609A60DA60524B524A1A60504B4FF4BC
:1015B00080325A604E4B00229A604D4B01221A61D4
:1015C0004B4B00229A614A4B002283F82020484B63
:1015D0000022DA62464B484A9A62454B0022DA60A2
:1015E000434B0822DA61424B012283F83020404B02
:1015F00000225A613E4808F02FFA0346002B01D022
:1016000001F0C0FA0A233B6001237B600123BB6029
:101610003B461946364808F071FB0346002B01D0C3
:1016200001F0B0FA0B233B6002237B603B46194676
:101630002F4808F063FB0346002B01D001F0A2FA0B
:101640000C233B6003237B603B461946284808F087
:1016500055FB0346002B01D001F094FA0D233B60AB
:1016600004237B603B461946214808F047FB0346AC
:10167000002B01D001F086FA0E233B6005237B602E
:101680003B4619461A4808F039FB0346002B01D0A7
:1016900001F078FA0F233B6006237B603B46194636
:1016A000134808F02BFB0346002B01D001F06AFA27
:1016B00008233B6007237B603B4619460C4808F033
:1016C0001DFB0346002B01D001F05CFA09233B60AF
:1016D00008237B603B461946054808F00FFB03468C
:1016E000002B01D001F04EFA00BF1037BD4680BD7F
:1016F00044430020002001400100000F80B584B069
:1017000000AF3B4600221A605A609A60DA60214BB3
:10171000214A1A601F4B4FF480325A601D4B002241
:101720009A601C4B00221A611A4B00229A61194BD5
:10173000002283F82020174B0022DA62154B174A4B
:101740009A62144B0022DA60124B0122DA61114BCB
:10175000002283F830200F4B01225A610D4808F017
:101760007BF90346002B01D001F00CFA02233B6009
:1017700001237B600023BB603B461946054808F007
:10178000BDFA0346002B01D001F0FCF900BF103771
:10179000BD4680BD8C430020002101400100000FA8
:1017A00080B584B000AF3B4600221A605A609A6050
:1017B000DA60214B214A1A601F4B4FF480325A6085
:1017C0001D4B00229A601C4B00221A611A4B00220A
:1017D0009A61194B002283F82020174B0022DA620D
:1017E000154B174A9A62144B0022DA60124B012201
:1017F000DA61114B002283F830200F4B01225A612D
:101800000D4808F029F90346002B01D001F0BAF980
:1018100001233B6001237B600023BB603B461946EC
:10182000054808F06BFA0346002B01D001F0AAF935
:1018300000BF1037BD4680BDD443002000220140C8
:101840000100000F80B58EB000AF07F11C0300222D
:101850001A605A609A60DA601A615A619A613B1D97
:1018600000221A605A609A60DA601A615A614FF475
:101870004030FFF703FA0220FFF776FA40237B603F
:101880000223BB600323FB6001233B6100237B61D8
:101890000423BB613B1D194621480AF049F8802307
:1018A0007B600223BB600323FB6001233B610023B9
:1018B0007B610423BB613B1D194619480AF038F8C7
:1018C0004FF40010FFF768FA1648FFF711F90022ED
:1018D00000211448FFF7E4F81248FFF7F9F811481F
:1018E000FFF7CEF80F48FFF7BBF80023FB610E4B64
:1018F0003B6200237B620023BB620023FB62002368
:101900003B6300237B6307F11C03194605480AF07B
:1019100027F90448FFF794F800BF3837BD4680BD6B
:101920000004024000540040FF63106080B58EB098
:1019300000AF07F11C0300221A605A609A60DA6057
:101940001A615A619A613B1D00221A605A609A60BE
:10195000DA601A615A614FF44020FFF78FF90220D4
:10196000FFF702FA4FF480637B600223BB6003231E
:10197000FB6001233B6100237B610423BB613B1DB2
:101980001946214809F0D4FF4FF400637B6002231D
:10199000BB600323FB6001233B6100237B610423C5
:1019A000BB613B1D1946184809F0C2FF4FF4800087
:1019B000FFF7F2F91548FFF79BF8002200211348C2
:1019C000FFF76EF81148FFF783F81048FFF758F853
:1019D0000E48FFF745F80023FB610D4B3B620023E7
:1019E0007B620023BB620023FB6200233B63002376
:1019F0007B6307F11C03194604480AF0B1F800BFE5
:101A00003837BD4680BD00BF00040240005800408A
:101A1000FFEAC00080B590B000AF07F1180328229C
:101A2000002118460CF050F93B4600221A605A601B
:101A30009A60DA601A615A614FF48050FFF7C4F976
:101A40000120FFF791F910233B6002237B60032301
:101A5000BB600023FB6000233B6105237B613B46A9
:101A60001946304809F064FF20233B6002237B6065
:101A70000323BB600023FB6000233B6105237B61E4
:101A80003B461946274809F053FF40233B60022399
:101A90007B600323BB600023FB6000233B610523C5
:101AA0007B613B4619461F4809F042FF80233B609B
:101AB00002237B600323BB600023FB6000233B61A8
:101AC00005237B613B461946164809F031FF002388
:101AD000BB614FF48273FB614FF4E0633B62002310
:101AE0007B620023BB620023FB6200233B63002375
:101AF0007B630023BB630723FB6307F118031946CD
:101B000009480AF005FC00210748FFF70DFA0648CE
:101B1000FFF71DFA0448FFF7F7F900BF4037BD464D
:101B200080BD00BF000002400030014080B590B091
:101B300000AF07F118032822002118460CF0C4F862
:101B40003B4600221A605A609A60DA601A615A6154
:101B50004FF48040FFF720F90220FFF705F94FF41A
:101B600000533B6002237B600323BB600023FB60C8
:101B700000233B6105237B613B461946414809F040
:101B8000D7FE4FF480433B6002237B600323BB609E
:101B90000023FB6000233B6105237B613B46194624
:101BA000384809F0C5FE4FF400433B6002237B60D8
:101BB0000323BB600023FB6000233B6105237B61A3
:101BC0003B4619462F4809F0B3FE4FF090520121D1
:101BD0002D48FEF7F1FE002201212B48FEF7F0FD13
:101BE0004FF4403201212848FEF7C2FE4FF48072C4
:101BF00001212548FEF708FE002201212248FEF7B8
:101C000027FE4FF4806201211F48FEF745FE4FF486
:101C1000006201211C48FEF763FE4FF400520121CF
:101C20001948FEF781FE01211748FEF7E9FE00235F
:101C3000BB614FF48273FB614FF470633B6200231E
:101C40007B620023BB624FF40073FB6200233B63A3
:101C500000237B630023BB630723FB6307F11803A7
:101C600019460A480AF054FB00210848FFF75CF9BE
:101C70000648FFF76CF90548FFF746F900BF403703
:101C8000BD4680BD000402400060024000380040B4
:101C900080B590B000AF07F1180328220021184644
:101CA0000CF012F83B4600221A605A609A60DA6023
:101CB0001A615A614FF40040FFF76EF80420FFF7F5
:101CC00053F84FF480633B6002237B600323BB60C7
:101CD0000023FB6000233B6106237B613B461946E2
:101CE000284809F025FE4FF400633B6002237B6027
:101CF0000323BB600023FB6000233B6106237B6161
:101D00003B4619461F4809F013FE4FF480533B60D1
:101D100002237B600323BB600023FB6000233B6145
:101D200006237B613B461946164809F001FE002355
:101D3000BB614FF48273FB614FF4E0633B620023AD
:101D40007B620023BB624FF40073FB6200233B63A2
:101D500000237B630023BB630723FB6307F11803A6
:101D6000194609480AF0D4FA00210748FFF7DCF8C1
:101D70000548FFF7ECF80448FFF7C6F800BF403706
:101D8000BD4680BD00080240003C004080B590B0D8
:101D900000AF07F118032822002118460BF094FF2A
:101DA0003B4600221A605A609A60DA601A615A61F2
:101DB0004FF40050FFF708F81020FEF7D5FF4FF45E
:101DC00080533B6002237B600323BB600023FB60E6
:101DD00000233B6105237B613B461946284809F0F7
:101DE000A7FD4FF400533B6002237B600323BB60DD
:101DF0000023FB6000233B6105237B613B461946C2
:101E00001F4809F095FD4FF480433B6002237B603F
:101E10000323BB600023FB6000233B6105237B6140
:101E20003B461946164809F083FD0023BB614FF479
:101E30008273FB614FF4E0633B6200237B6201230A
:101E4000BB624FF40073FB6220233B6300237B6380
:101E50000023BB630723FB6307F1180319460948F6
:101E60000AF056FA00210748FFF75EF80548FFF729
:101E70007EF80448FFF748F800BF4037BD4680BDF4
:101E8000001002400034014080B590B000AF07F16F
:101E900018032822002118460BF016FF3B460022AB
:101EA0001A605A609A60DA601A615A614FF4001041
:101EB000FEF78AFF0220FEF757FF08233B6002234C
:101EC0007B600323BB600023FB6000233B6108238E
:101ED0007B613B461946574809F02AFD10233B60B9
:101EE00002237B600323BB600023FB6000233B6174
:101EF00008237B613B4619464E4809F019FD202313
:101F00003B6002237B600323BB600023FB60002354
:101F10003B6108237B613B461946464809F008FDB2
:101F20004FF0007205214448FEF746FD402205218E
:101F30004148FEF745FC4FF4403205213E48FEF78C
:101F400017FD002205213C48FEF75EFC002205211A
:101F50003948FEF77DFC4FF4806205213648FEF7D4
:101F60009BFC002205213448FEF7BAFC0022052123
:101F70003148FEF7D9FC05212F48FEF741FD4FF00F
:101F8000007206212C48FEF717FD002206212A4880
:101F9000FEF716FC4FF4403206212748FEF7E8FC16
:101FA000002206212448FEF72FFC002206212248A9
:101FB000FEF74EFC4FF4806206211F48FEF76CFCD2
:101FC000002206211C48FEF78BFC002206211A483D
:101FD000FEF7AAFC06211848FEF712FD0023BB619C
:101FE0004FF48273FB614FF4E0633B6200237B623A
:101FF0000023BB624FF40073FB6200233B630023AA
:102000007B630023BB630723FB6307F118031946B7
:102010000A480AF07DF900210848FEF785FF0748C5
:10202000FEF795FF0548FEF76FFF00BF4037BD463E
:1020300080BD00BF00040240006402400054014023
:1020400080B588B000AF07F1100300221A605A6013
:102050009A60DA603B1D00221A605A609A60204B39
:10206000204A1A601E4B00225A601D4B00229A60C3
:102070001B4B4FF6FF72DA60194B00221A61184BA6
:1020800000225A61164B00229A61154808F03EFF63
:102090000346002B01D000F075FD4FF480533B61E7
:1020A00007F1100319460E4808F088FF0346002B7D
:1020B00001D000F067FD00237B600023BB6000239C
:1020C000FB603B1D1946064809F088F90346002BC2
:1020D00001D000F057FD00BF2037BD4680BD00BFD6
:1020E0007C4400200000014080B594B000AF07F1AF
:1020F0003C0300221A605A609A60DA601A6107F1A4
:102100001C032022002118460BF0DEFD3B1D00229F
:102110001A605A609A60DA601A615A610420FEF708
:102120003BFE0A23BB8700233B644CF250337B64A5
:102130004FF40073BB6407F13C03194655480AF09D
:10214000D5F95448FEF723FF00215248FEF7D2FF8D
:1021500001215048FEF77EFF6023FB6100233B62B4
:1021600000237B620023BB620023FB6207F11C0398
:102170001A46012147480AF053FA01214548FEF763
:1021800017FF10214348FEF765FF07F11C031A46AD
:10219000102140480AF044FA10213E48FEF708FF9B
:1021A0004FF480713B48FEF755FF07F11C031A46B8
:1021B0004FF4807137480AF033FA4FF48071354894
:1021C000FEF7F6FE4FF480513248FEF743FF07F169
:1021D0001C031A464FF480512E480AF021FA4FF49E
:1021E00080512C48FEF7E4FE00212A48FEF798FFB4
:1021F0002848FEF7A8FF0820FEF7B6FD4FF48053ED
:102200007B600223BB600023FB6000233B61002353
:102210007B610223BB613B1D19461F4809F088FB07
:102220004FF400537B600223BB600023FB6000235C
:102230003B6100237B610223BB613B1D19461648AD
:1022400009F076FB4FF480437B600223BB600023E0
:10225000FB6000233B6100237B610223BB613B1DCC
:1022600019460D4809F064FB4FF400437B600223DC
:10227000BB600023FB6000233B6100237B610223E2
:10228000BB613B1D1946044809F052FB00BF5037A3
:10229000BD4680BD00080040000C024080B58EB0F5
:1022A00000AF07F11C0300221A605A609A60DA60DE
:1022B0001A615A619A613B1D00221A605A609A6045
:1022C000DA601A615A614FF04050FEF7BDFC4FF0E2
:1022D0008040FEF761FD1020FEF746FD80237B6005
:1022E0000223BB600323FB6000233B6100237B616F
:1022F0000823BB613B1D1946194809F019FB4FF42F
:1023000080737B600223BB600323FB6000233B617F
:1023100000237B610823BB613B1D1946104809F06F
:1023200007FB4FF4E133FB6100233B6200237B6238
:102330000023BB620C23FB6200233B6300237B630F
:1023400007F11C03194607480AF08AFC0548FEF706
:1023500065FF0448FEF707FF00BF3837BD4680BD64
:10236000001002400078004080B58EB000AF07F149
:102370001C0300221A605A609A60DA601A615A617E
:102380009A613B1D00221A605A609A60DA601A61F5
:102390005A614FF44030FEF73DFC1020FEF714FD6B
:1023A0000120FEF7E1FC4FF400737B600223BB6069
:1023B0000323FB6000233B6100237B610723BB6198
:1023C0003B1D19462A4809F0B3FA4FF480637B603D
:1023D0000223BB600323FB6000233B6100237B617E
:1023E0000723BB613B1D1946214809F0A1FA4FF4B0
:1023F00080537B600223BB600323FB6000233B61AF
:1024000000237B610723BB613B1D1946184809F077
:102410008FFA4FF4E133FB6100233B6200237B62C0
:102420000023BB620C23FB6200233B6300237B631E
:1024300007F11C0319460F480AF012FC0D48FEF77D
:10244000CAFE00210B48FEF7D6FE00210948FEF720
:10245000AEFE00210748FEF796FE0648FEF7DEFEB8
:102460000448FEF780FE00BF3837BD4680BD00BF80
:10247000000002400010014080B58EB000AF07F1AF
:102480001C0300221A605A609A60DA601A615A616D
:102490009A613B1D00221A605A609A60DA601A61E4
:1024A0005A614FF04060FEF7B5FB2020FEF78CFC30
:1024B0000420FEF759FC40237B600223BB6003230A
:1024C000FB6000233B6100237B610823BB613B1D54
:1024D0001946214809F02CFA80237B600223BB6057
:1024E0000323FB6000233B6100237B610823BB6166
:1024F0003B1D1946184809F01BFAFEF7D7F80346AA
:1025000000220E211846FEF727F9034619464720F8
:10251000FEF7F8F84720FEF7D7F84FF4E133FB61F8
:1025200000233B6200237B620023BB620C23FB621F
:1025300000233B6300237B6307F11C031946074814
:102540000AF08EFB0548FEF769FE0448FEF70BFE15
:1025500000BF3837BD4680BD00080240001401406E
:1025600080B500AF4FF48000FEF7FEFB4FF4001083
:10257000FEF7FAFBFEF79AF8034600220021184600
:10258000FEF7EAF8034619460C20FEF7BBF80C20CC
:10259000FEF79AF800220021382007F05CFF38206F
:1025A00007F075FFFEF782F8034600220021184667
:1025B000FEF7D2F8034619464420FEF7A3F844205C
:1025C000FEF782F8FEF772F8034600220021184653
:1025D000FEF7C2F8034619464520FEF793F845205A
:1025E000FEF772F800BF80BD80B588B000AF07F17C
:1025F000180300221A605A603B4600221A605A6093
:102600009A60DA601A615A611020FEF7ADFB04206F
:10261000FEF7AAFB8020FEF7A7FB0120FEF7A4FB34
:102620000220FEF7A1FB0820FEF79EFB0421BF4815
:10263000FEF776FE0821BD48FEF772FE1021BB486A
:10264000FEF76EFE2021B948FEF76AFE4021B7482A
:10265000FEF766FE4FF40051B548FEF761FE4FF4F9
:102660008041B348FEF75CFE4FF40041B048FEF7EE
:1026700057FE4FF40061AD48FEF752FE4FF4006183
:10268000AC48FEF74DFE4FF40041AA48FEF748FE65
:102690000121A948FEF744FE0221A748FEF740FEAB
:1026A0000421A548FEF73CFE1021A348FEF738FEA2
:1026B0002021A148FEF734FE40219F48FEF730FE5E
:1026C00004219E48FEF71EFE4FF480619748FEF7F6
:1026D00019FE4FF400419548FEF714FE4FF4805167
:1026E0009648FEF70FFE4FF480719348FEF70AFEFE
:1026F0004FF400719048FEF705FE4FF480618E485C
:10270000FEF700FE80218C48FEF7FCFD4FF480713F
:102710008A48FEF7F7FD4FF400718848FEF7F2FD96
:1027200001218248FEF7EEFD02218048FEF7EAFD16
:1027300004233B6001237B600023BB600023FB601C
:1027400000233B613B461946784809F0F1F808231D
:102750003B6001237B600023BB600023FB60002300
:102760003B613B461946714809F0E2F810233B6093
:1027700001237B600023BB600023FB6000233B61DF
:102780003B461946694809F0D3F820233B600123F2
:102790007B600023BB600023FB6000233B613B4662
:1027A0001946624809F0C4F840233B6001237B606E
:1027B0000023BB600023FB6000233B613B461946BE
:1027C0005A4809F0B5F84FF400533B6001237B6091
:1027D0000023BB600023FB6000233B613B4619469E
:1027E000534809F0A5F84FF480433B6001237B6018
:1027F0000023BB600023FB6000233B613B4619467E
:102800004B4809F095F84FF400433B6001237B608F
:102810000023BB600023FB6000233B613B4619465D
:10282000434809F085F804233B6001237B600023C3
:10283000BB600023FB6000233B613B4619463F48D9
:1028400009F076F84FF480633B6001237B6000233E
:10285000BB600023FB6000233B613B4619463348C5
:1028600009F066F84FF400633B6001237B600023AE
:10287000BB600023FB6000233B613B4619462B48AD
:1028800009F056F84FF400433B6001237B600023BE
:10289000BB600023FB6000233B613B461946234895
:1028A00009F046F84FF480533B6001237B6000231E
:1028B000BB600023FB6000233B613B4619461F4879
:1028C00009F036F84FF480733B6001237B600323EB
:1028D000BB600023FB6000233B613B461946164862
:1028E00009F026F84FF400733B6001237B6003235B
:1028F000BB600023FB6000233B613B4619460E484A
:1029000009F016F84FF480633B6001237B600323DA
:10291000BB600023FB6000233B613B461946064831
:1029200009F006F84FF480733B6009E000100240A4
:102930000008024000000240000C02400004024077
:1029400000237B6000233B613B461946874808F023
:10295000EFFF4FF400733B6000237B6000233B617B
:102960003B461946814808F0E3FF4FF480733B6013
:1029700000237B6000233B613B4619467C4808F0FE
:10298000D7FF4FF400633B6001237B600023BB60F3
:102990000023FB6000233B613B461946744808F066
:1029A000C7FF4FF400433B6001237B600023BB6003
:1029B0000023FB6000233B613B4619466C4808F04E
:1029C000B7FF01233B6001237B600023BB60002332
:1029D000FB6000233B613B461946664808F0A8FFB0
:1029E00002233B6001237B600023BB600023FB606C
:1029F00000233B613B4619465E4808F099FF0423DB
:102A00003B6001237B600023BB600023FB6000234D
:102A10003B613B461946574808F08AFF08233B6054
:102A200000237B6000233B613B461946514808F078
:102A30007FFF10233B6001237B600023BB600023EA
:102A4000FB6000233B613B4619464A4808F070FF93
:102A500020233B6001237B600023BB600023FB60DD
:102A600000233B613B461946424808F061FF402382
:102A70003B6001237B600023BB600023FB600023DD
:102A80003B613B4619463B4808F052FF80233B60C0
:102A900001237B600023BB600023FB6000233B61BC
:102AA0003B461946334808F043FF4FF480733B60C0
:102AB00001237B600023BB600023FB6000233B619C
:102AC0003B4619462C4808F033FF4FF400733B6037
:102AD00001237B600023BB600023FB6000233B617C
:102AE0003B461946244808F023FF01233B6001239D
:102AF0007B600023BB600023FB6000233B613B46FF
:102B000019461E4808F014FF02233B6001237B6036
:102B10000023BB600023FB6000233B613B4619465A
:102B2000164808F005FF16490320FEF765F94FF433
:102B30000063BB6101233B7700237B770223BB77D4
:102B400007F11803184608F06FFD01224FF40061E9
:102B50000848FEF7A8FB00224FF400610548FEF785
:102B600073FB00BF2037BD4680BD00BF0008024098
:102B700000000240000C024000040240001002402D
:102B8000020000F080B400AF72B600BF00BFFDE7E6
:102B900080B483B000AF0F4B1B6C0E4A43F08053E0
:102BA00013640C4B1B6C03F080537B607B68094BF8
:102BB0005B6C084A43F480435364064B5B6C03F43C
:102BC00080433B603B6800BF0C37BD465DF8047B2B
:102BD000704700BF0038024080B58EB000AF78600B
:102BE00007F1240300221A605A609A60DA601A61C1
:102BF0007B681B68634A93426CD1634B5B6C624A8F
:102C000043F480735364604B5B6C03F480733B62EA
:102C10003B6A5D4B1B6B5C4A43F0040313635A4BE6
:102C20001B6B03F00403FB61FB69574B1B6B564A9C
:102C300043F002031363544B1B6B03F00203BB61AD
:102C4000BB693F237B620323BB620023FB6207F166
:102C5000240319464D4807F0ADFF03237B6203238D
:102C6000BB620023FB6207F124031946484807F0C2
:102C7000A1FF484B484A1A60464B00225A60454B18
:102C800000229A60434B0022DA60424B4FF480628C
:102C90001A61404B4FF400625A613E4B4FF40052B0
:102CA0009A613C4B4FF48072DA613A4B00221A620F
:102CB000384B00225A62374807F004FC0346002BC9
:102CC00001D0FFF75FFF7B68324A9A63314A7B6825
:102CD000936352E07B681B68304A934224D12A4BAD
:102CE0005B6C294A43F400735364274B5B6C03F419
:102CF00000737B617B69244B1B6B234A43F0010308
:102D00001363214B1B6B03F001033B613B690C23F5
:102D10007B620323BB620023FB6207F12403194695
:102D20001F4807F047FF28E07B681B681D4A934255
:102D300023D1154B5B6C144A43F480635364124BEC
:102D40005B6C03F48063FB60FB680F4B1B6B0E4AEC
:102D500043F0010313630C4B1B6B03F00103BB60D7
:102D6000BB6802237B620323BB620023FB6207F183
:102D7000240319460A4807F01DFF00BF3837BD4637
:102D800080BD00BF00200140003802400008024022
:102D9000000402401C440020106402400021014055
:102DA000000002400022014080B485B000AF78608E
:102DB0007B681B680A4A93420BD10A4B5B6C094A39
:102DC00043F001035364074B5B6C03F00103FB60AA
:102DD000FB6800BF1437BD465DF8047B704700BF39
:102DE000000001400038024080B483B000AF78603A
:102DF0007B685B6803F40063B3F5006F0CBF0123CD
:102E00000023DBB218460C37BD465DF8047B7047E3
:102E100080B483B000AF78607B685B6803F4001314
:102E2000B3F5001F0CBF01230023DBB218460C379B
:102E3000BD465DF8047B704780B483B000AF786016
:102E40007B684FF40062DA6000BF0C37BD465DF866
:102E5000047B704780B483B000AF78607B684FF428
:102E60000012DA6000BF0C37BD465DF8047B704786
:102E700080B400AF00BFFDE780B400AF00BFFDE746
:102E800080B400AF00BFFDE780B400AF00BFFDE736
:102E900080B400AF00BFFDE780B400AF00BFBD4607
:102EA0005DF8047B704780B400AF00BFBD465DF89D
:102EB000047B704780B400AF00BFBD465DF8047B63
:102EC000704780B500AF06F02FFD06F0A5FD00BFEE
:102ED00080BD80B400AF00BFBD465DF8047B704785
:102EE00080B500AF024807F0FBFB00BF80BD00BF0C
:102EF0001C44002080B400AF00BFBD465DF8047BD9
:102F00007047000080B500AF0B48FFF781FF034614
:102F1000002B02D00848FFF79DFF0748FFF764FF2A
:102F20000346002B02D00448FFF786FF034803F056
:102F3000CDFB00BF80BD00BF006402401000002038
:102F400080B500AF01F08EFB00BF80BD80B400AF44
:102F500001231846BD465DF8047B704780B582B0FA
:102F600000AF786039600AF00FFF034616221A603E
:102F70004FF0FF3318460837BD4680BD80B582B09C
:102F800000AF78604FF0FF317868FFF7E7FF00BFD0
:102F9000FDE780B586B000AFF860B9607A600023C5
:102FA0007B610AE0AFF300800146BB685A1CBA603F
:102FB000CAB21A707B6901337B617A697B689A4275
:102FC000F0DB7B6818461837BD4680BD80B586B0FB
:102FD00000AFF860B9607A6000237B6109E0BB68EC
:102FE0005A1CBA601B781846AFF300807B69013326
:102FF0007B617A697B689A42F1DB7B6818461837F7
:10300000BD4680BD80B483B000AF78604FF0FF3321
:1030100018460C37BD465DF8047B704780B483B01A
:1030200000AF786039603B684FF400525A6000236B
:1030300018460C37BD465DF8047B704780B483B0FA
:1030400000AF7860012318460C37BD465DF8047B5D
:10305000704780B485B000AFF860B9607A60002333
:1030600018461437BD465DF8047B704780B586B0BE
:1030700000AF7860144A154BD31A7B617B693B61C2
:10308000134B1B68002B02D1114B124A1A60104BD4
:103090001A687B6813443A699A4207D20AF074FEB0
:1030A00003460C221A604FF0FF3309E0084B1B68FF
:1030B000FB60074B1A687B681344054A1360FB6882
:1030C00018461837BD4680BD0000082000040000E7
:1030D000C8440020705A002080B400AF064BD3F8DB
:1030E0008830054A43F47003C2F8883000BFBD46FB
:1030F0005DF8047B704700BF00ED00E0DFF834D0DE
:10310000FFF7EAFF0C480D490D4A002302E0D458AE
:10311000C4500433C4188C42F9D30A4A0A4C002321
:1031200001E013600432A242FBD30AF033FEFEF743
:1031300006F9704700000820000000202843002006
:103140007016010828430020705A0020FEE780B561
:1031500000AF01F0E5F901F03BFB02F041F900F0AE
:1031600091F800BF80BD80B500AF012000F0ACF841
:10317000042001F007FA022001F050FB032002F0C6
:1031800051F900BF80BD80B500AF06F0CBFA00BF9B
:1031900080BD000080B586B002AF786039600A4B10
:1031A000FB6024230093094BFA680949094805F09C
:1031B000C3FF02F0DBFA7B68012283F82D2000BFF9
:1031C0001037BD4680BD00BF58FC000860FC0008F9
:1031D00088FC0008AC45002080B584B000AF786062
:1031E00039607B685B69FB607B685B69396878681C
:1031F00098470346FB72FB7A002B08D1FB6806490F
:10320000786898477B685B6904497868984700BF8D
:103210001037BD4680BD00BF740F0108600F010864
:1032200080B584B002AF786039607B68002B03D131
:103230000021114802F05CF978683B685A683B68E5
:103240009B68009313460D4A0D4906F0B9FA7B6856
:1032500018337A680E21184606F014FB7B68183381
:10326000184606F047FB3B681A7B7B6883F82820EA
:1032700000BF0837BD4680BD500F0108D931000896
:103280009531000890B587B002AF14230093022354
:1032900028220949094805F0B4FF094B3C460FCBE9
:1032A00084E80F003B4619460648FFF7B9FF00BF08
:1032B0001437BD4690BD00BF144500203C4500209A
:1032C000ACFC0008CC44002080B582B000AF0346BF
:1032D000FB71FB791946034806F08CFA00BF0837EA
:1032E000BD4680BDCC44002080B586B002AF78607A
:1032F00039603B681B88012B02D00F2B0FD021E0D7
:10330000134BFB6051230093124BFA681249134888
:1033100005F012FF7B681833184606F0EBFA3B689D
:103320009B78002B02D0012B05D009E07B680C4A6A
:103330005A61002307E07B680A4A5A61002302E0D1
:10334000022300E0022318461037BD4680BD00BFAF
:1033500058FC000860FC0008BCFC0008AC450020DC
:1033600069330008B934000880B586B002AF7860D0
:1033700039603B681B88013B112B00F28C8001A255
:1033800052F823F0CD33000897340008FD330008CD
:1033900097340008973400089734000897340008E1
:1033A00097340008973400089734000897340008D1
:1033B00097340008973400088534000897340008D3
:1033C0001F3400083F3400085F340008344BBB60F2
:1033D00071230093334BBA683349344805F0ACFE8F
:1033E0007B68183300224FF4FA61184606F06CFA35
:1033F0007B68002283F8282001234DE0284BFB60E6
:1034000078230093274BFA682949284805F094FE51
:103410007B681833184606F06DFA01233CE07B68A0
:1034200093F82830002B04D17B68012283F82820F0
:1034300003E07B68032283F8282001232CE07B68CB
:1034400093F82830012B04D17B68022283F82820CE
:1034500003E07B68032283F8282001231CE07B68BB
:1034600093F82830022B04D17B68052283F82820AA
:1034700003E07B68032283F828207B680D4A5A61A9
:10348000002309E07B68042283F828207B68094A2E
:103490005A61002300E0022318461037BD4680BD64
:1034A00058FC000860FC0008F4FC0008AC45002053
:1034B00030FD0008E932000880B483B000AF7860C6
:1034C0003960022318460C37BD465DF8047B70470F
:1034D00080B584B000AFF860B9607A60BB68012B3A
:1034E00002D87B68642B01D9062318E0FB6893F8A7
:1034F0002D30002B06D0002002F0F4F8FB680022EB
:1035000083F82D207968B86802F0DAF97B68D9B2BF
:10351000FA68BB68134429330A461A700023184618
:103520001037BD4680BD80B485B000AF786039608B
:103530003B68002B02D00123FB6001E00023FB600D
:103540007A68FB68134429331B7818461437BD4644
:103550005DF8047B704780B582B000AF7860396059
:103560003B68232B01D9062314E07B6893F82D30A8
:10357000012B06D0012002F0B5F87B68012283F808
:103580002D20386802F028F93B68DAB27B6883F8AE
:103590002B20002318460837BD4680BD80B582B079
:1035A00000AF78607B6893F82D30012B06D00120A6
:1035B00002F098F87B68012283F82D2002F01CF9B4
:1035C0007B68FF2283F82B20002318460837BD466E
:1035D00080BD80B582B000AF786039603B68072B52
:1035E00001D9062314E07B6893F82D30012B06D017
:1035F000012002F077F87B68012283F82D203868DB
:1036000002F004F93B68DAB27B6883F82C200023CF
:1036100018460837BD4680BD80B582B000AF7860DF
:103620007B6893F82D30012B06D0012002F05AF868
:103630007B68012283F82D2002F0F8F87B68FF22D6
:1036400083F82C20002318460837BD4680BD0000B3
:1036500080B400AFBFF34F8F00BF064BDB6803F4AD
:10366000E0620449044B1343CB60BFF34F8F00BFAC
:1036700000BFFDE700ED00E00400FA0580B588B06A
:1036800000AFF860B9607A6007F11403074A0A21B5
:1036900018460AF093F907F114031946F86804F084
:1036A00025F900BF2037BD4680BD00BF5804010882
:1036B00080B584B000AFF860B9607A60FFF7C8FFEA
:1036C00080B588B000AFF860B9607A600023BB6154
:1036D0000023FB82B86804F001FA03467B757B7D0A
:1036E000012B04D02449F86805F07EFB40E001215D
:1036F000B86804F0BDF938613B691B78612B16D1BD
:103700000023FB770FE0FB7F184601F0C7FE03465E
:10371000FB82FA7FB7F916301849F86805F064FBA8
:10372000FB7F0133FB77FB7F072BECD920E03B6964
:103730001B782F2B18D93B691B78372B14D8386985
:1037400009F064FB0346BB61B86901F0A7FE0346BC
:10375000FB820B4803F002FFB7F91630BA6907493C
:10376000F86805F041FB03E00649F86805F03CFB0A
:103770002037BD4680BD00BF6004010880040108F9
:10378000785800209004010880B588B000AFF86038
:10379000B9607A60B86804F0A1F90346FB61FB697F
:1037A000012B04D01549F86805F01EFB23E0144BEB
:1037B0001B68184601F0F8FB034683F00103DBB2F7
:1037C000002B04D00F49F86805F00EFB13E001212F
:1037D000B86804F04DF9B861B86909F017FB034601
:1037E0007B61074B1B687969184601F092FD064919
:1037F000F86805F0F9FA2037BD4680BD600401087D
:1038000004000020A4040108F004010880B584B07D
:1038100000AFF860B9607A600A4B1B68184601F087
:1038200091FD0346002B04D00749F86805F0DCFA47
:1038300003E00649F86805F0D7FA00BF1037BD4627
:1038400080BD00BF04000020F8040108080501083D
:1038500080B588B000AFF860B9607A60B86804F0ED
:103860003DF90346BB61BB69012B04D03849F868B8
:1038700005F0BAFA69E0374B1B68184601F094FB73
:10388000034683F00103DBB2002B04D03249F86811
:1038900005F0AAFA59E00121B86804F0E9F8786166
:1038A00000233B617B691B78612B25D10023FB61E1
:1038B0001EE0284B1B68F969184601F030FB38619F
:1038C0003B69002B0CD1234B1B680022F969184679
:1038D00001F045FBFA692149F86805F085FA04E032
:1038E000FA691F49F86805F07FFAFB690133FB614B
:1038F000FB69032BDDD928E07B691B782F2B24D9AA
:103900007B691B78332B20D8786909F07FFA03464E
:10391000FB61104B1B68F969184601F000FB386128
:103920003B69002B0CD10B4B1B680022F969184630
:1039300001F015FBFA690949F86805F055FA04E049
:10394000FA690749F86805F04FFA2037BD4680BD8F
:103950006004010804000020180501086005010842
:103960007405010880B588B000AFF860B9607A606E
:10397000B86804F0B3F80346FB61FB69012B04D07F
:103980001549F86805F030FA22E00121B86804F022
:103990006FF8B861B86909F039FA0346FB82FB8A0F
:1039A000B3F5FA7F04D3FB8A40F6B832934204D9C8
:1039B0000A49F86805F018FA0AE0094B1B68FA8A08
:1039C0001146184601F055FB0649F86805F00CFA57
:1039D0002037BD4680BD00BF8C050108B405010835
:1039E00004000020E805010880B586B000AFF8604B
:1039F000B9607A60084B1B68184601F080F90346ED
:103A0000FB82FB8A1A460549F86805F0EDF900BF0C
:103A10001837BD4680BD00BF04000020F005010836
:103A200080B588B000AFF860B9607A60B86804F01B
:103A300055F80346BB61BB69042B04D02449F868E0
:103A400005F0D2F941E00023FB613BE0FB699BB24A
:103A500001339BB21946B86804F00AF803461846C9
:103A600009F0D4F90346D9B207F11402FB691344F3
:103A70000A461A7007F11402FB6913441B78012BE4
:103A800005D9FA691349F86805F0AEF91DE007F1A8
:103A90001402FB6913441B78002B08D10E4B1B68E2
:103AA000FA69D2B21146184601F0B3FA07E00A4BA0
:103AB0001B68FA69D2B21146184601F089FAFB690F
:103AC0000133FB61FB69032BC0D92037BD4680BDA4
:103AD00010060108340601080400002080B586B0F5
:103AE00000AFF860B9607A60154B1B68184601F0AA
:103AF000B3FA0346FB7400237B6115E0FA7C7B6913
:103B000042FA03F303F00103002B05D07A690D4953
:103B1000F86805F069F904E07A690B49F86805F07E
:103B200063F97B6901337B617B69032BE6D9074924
:103B3000F86805F059F900BF1837BD4680BD00BFD1
:103B4000040000205C0601087006010888060108D0
:103B500080B58CB000AFF860B9607A60364B1B68F6
:103B6000184601F021FA034683F00103DBB2002B73
:103B700004D03249F86805F037F95AE0B86803F024
:103B8000ADFF0346BB62BB6A032B04D02C49F86827
:103B900005F02AF94DE00121B86803F069FF786269
:103BA000786A09F033F903463B623B6A032B04D978
:103BB0002449F86805F018F93BE00221B86803F0E1
:103BC00057FFF861F86909F021F90346FB62FB6AC7
:103BD000012B02D90123FB6201E00023FB620321D8
:103BE000B86803F045FFB861B86909F00FF90346FA
:103BF000FB82FB8A40F6B832934204D91249F86836
:103C000005F0F2F815E00C4B1868FB8AFA6A396A7D
:103C100001F0FFFA38613B69002B04D00B49F868CA
:103C200005F0E2F805E0FB8A3A6A0949F86805F010
:103C3000DBF83037BD4680BD040000208C0601084B
:103C4000B0060108DC060108000701082C0701087E
:103C50004007010880B58AB000AFF860B9607A60AB
:103C60002F4B1B68184601F09FF9034683F00103B0
:103C7000DBB2002B04D02B49F86805F0B5F84CE016
:103C8000B86803F02BFF03467B627B6A022B04D0EB
:103C90002549F86805F0A8F83FE00121B86803F06D
:103CA000E7FE3862386A09F0B1F80346FB61FB6948
:103CB000032B04D91D49F86805F096F82DE0022180
:103CC000B86803F0D5FEB861B86909F09FF80346FB
:103CD0007B61134B18687B69002B14BF0123002301
:103CE000DBB21A46F96901F03AF938613B69002BF9
:103CF00005D0FA690E49F86805F076F80DE07B69A1
:103D0000002B05D0FA690B49F86805F06DF804E05E
:103D1000FA690949F86805F067F82837BD4680BD9B
:103D2000040000208C06010858070108DC06010881
:103D3000780701089C070108B807010880B588B01A
:103D400000AFF860B9607A60B86803F0C7FE034658
:103D5000FB61FB69012B04D01249F86805F044F8B7
:103D60001CE00121B86803F083FEB861B86909F06E
:103D70004DF80346FB75FB7D642B04D90A49F868AE
:103D800005F032F80AE0094B1B68FA7D1146184627
:103D900001F08BF90649F86805F026F82037BD4692
:103DA00080BD00BFA0080108C4080108040000206D
:103DB000E805010880B586B000AFF860B9607A60A8
:103DC000084B1B68184601F086F90346FB75FB7D1E
:103DD0001A460549F86805F007F800BF1837BD46D0
:103DE00080BD00BF04000020E808010880B588B04D
:103DF00000AFF860B9607A60B86803F06FFE034600
:103E0000BB61BB69042B04D02449F86804F0ECFFC3
:103E100041E00023FB613BE0FB699BB201339BB2B5
:103E20001946B86803F024FE0346184608F0EEFF72
:103E30000346D9B207F11402FB6913440A461A700B
:103E400007F11402FB6913441B78012B05D9FA69A9
:103E50001349F86804F0C8FF1DE007F11402FB697C
:103E600013441B78002B08D10E4B1B68FA69D2B2A1
:103E70001146184601F05DF907E00A4B1B68FA6924
:103E8000D2B21146184601F033F9FB690133FB61E8
:103E9000FB69032BC0D92037BD4680BD040901084A
:103EA000340601080400002080B586B000AFF86039
:103EB000B9607A60144B1B68184601F05DF903463F
:103EC000FB7400237B6113E0FA7C7B6942FA03F305
:103ED00003F00103002B04D00C49F86804F084FFC0
:103EE00003E00B49F86804F07FFF7B6901337B61D5
:103EF0007B69032BE8D90749F86804F075FF00BF18
:103F00001837BD4680BD00BF040000202C09010801
:103F1000440901088806010880B588B000AFF86040
:103F2000B9607A60B86803F0D9FD0346FB61FB69AC
:103F3000012B04D01549F86804F056FF23E0012155
:103F4000B86803F095FDB861B86908F05FFF0346F3
:103F5000FB820F4B1B68B7F916201146184601F07B
:103F60002EF9B7F9163007EE903AB8EEE77AF2EE8E
:103F7000046AC7EE267AB7EEE77A53EC172B0549A9
:103F8000F86804F031FF2037BD4680BD60090108A4
:103F9000040000208809010880B586B000AFF860F1
:103FA000B9607A600E4B1B68184601F018F9034699
:103FB000FB82B7F9163007EE903AB8EEE77AF2EEE8
:103FC000046AC7EE267AB7EEE77A53EC172B054959
:103FD000F86804F009FF00BF1837BD4680BD00BF78
:103FE00004000020A809010880B588B000AFF8607F
:103FF000B9607A60B86803F071FD0346FB61FB6944
:10400000012B04D01049F86804F0EEFE19E00121FC
:10401000B86803F02DFDB861B86908F0F7FE0346F3
:104020007B617B69072B04D90849F86804F0DCFE42
:1040300007E0074B1B687A69D2B21146184601F0B7
:10404000A8F82037BD4680BDC8090108E00901086D
:104050000400002080B586B000AFF860B9607A60D7
:104060000023FB75084B1B68184601F0C5F8034692
:10407000FB75FB7D1A460549F86804F0B5FE00BFE4
:104080001837BD4680BD00BF04000020FC090108B0
:1040900080B584B000AFF860B9607A60064B1B68E9
:1040A000184600F039FE0549F86804F09DFE00BF8F
:1040B0001037BD4680BD00BF040000200C0A010877
:1040C00080B584B000AFF860B9607A60064B1B68B9
:1040D000184600F03DFE0549F86804F085FE00BF73
:1040E0001037BD4680BD00BF04000020200A010833
:1040F00080B588B000AFF860B9607A60B86803F046
:10410000EDFC0346FB61FB69012B04D01449F86800
:1041100004F06AFE21E00121B86803F0A9FCB8614F
:10412000B86908F073FE0346FB82B7F91630642BBA
:1041300004DD0C49F86804F057FE0EE00A4B1B68DA
:10414000B7F9162000211846FFF7C2F9B7F9163063
:104150001A460649F86804F047FE2037BD4680BD80
:10416000340A01085C0A010808000020800A0108DE
:1041700080B588B000AFF860B9607A60B86803F0C5
:10418000ADFC0346FB61FB69012B04D01449F868C0
:1041900004F02AFE21E00121B86803F069FCB8614F
:1041A000B86908F033FE0346FB82B7F91630642B7A
:1041B00004DD0C49F86804F017FE0EE00A4B1B689A
:1041C000B7F9162001211846FFF782F9B7F9163022
:1041D0001A460649F86804F007FE2037BD4680BD40
:1041E000A40A01085C0A010808000020800A0108EE
:1041F00080B586B000AFF860B9607A600B4B1B6881
:1042000000211846FFF78FF97861084B1B680121E0
:104210001846FFF788F938613B697A690449F868FC
:1042200004F0E2FD00BF1837BD4680BD0800002045
:10423000EC0A010880B588B000AFF860B9607A6018
:10424000B86803F04BFC0346FB61FB69012B04D00B
:104250001249F86804F0C8FD1CE00121B86803F0B9
:1042600007FCB861B86908F0D1FD78617B69232B40
:1042700004DD0B49F86804F0B7FD0BE0094B1B683F
:104280007A6911461846FFF766F97A690649F868AF
:1042900004F0AAFD2037BD4680BD00BF2C0B0108ED
:1042A000500B010808000020740B010880B588B08D
:1042B00000AFF860B9607A60B86803F00FFC03469D
:1042C000FB61FB69012B04D01249F86804F08CFDF6
:1042D0001CE00121B86803F0CBFBB861B86908F0B5
:1042E00095FD78617B69072B04DD0B49F86804F0C4
:1042F0007BFD0BE0094B1B687A6911461846FFF7F6
:1043000068F97A690649F86804F06EFD2037BD4601
:1043100080BD00BF900B0108B40B0108080000200D
:10432000D40B010880B584B000AFF860B9607A6042
:10433000044B1B681846FFF731F900BF1037BD4624
:1043400080BD00BF0800002080B584B000AFF860D9
:10435000B9607A60044B1B681846FFF75DF900BF2F
:104360001037BD4680BD00BF0800002080B400AFFC
:10437000024B1846BD465DF8047B7047880F010864
:1043800080B400AF1E231846BD465DF8047B70471D
:1043900080B483B000AF78607B68DB6903F02003F2
:1043A000202B01D1012300E0002318460C37BD4625
:1043B0005DF8047B704780B483B000AF78607B68A1
:1043C0005B6ADBB218460C37BD465DF8047B70476C
:1043D00080B500AF4FF480720A490B4805F06AF8C7
:1043E0004FF4006209490A4805F064F8084B064A90
:1043F0000849094804F0BDFD074804F0D6FD00BF98
:1044000080BD00BFE4450020BC450020E4460020FC
:10441000D045002000140140AC450020B0B588B064
:1044200000AF154B3C1D1D460FCD0FC495E807008E
:1044300084E80700FFF79AFF0346BB61FFF7A0FF80
:104440000346BB833B1D184603F00DF903460B4A98
:1044500013600A4B1B68002B05D10121084801F0AD
:1044600047F8012304E0054B1B68064A1A60002345
:1044700018462037BD46B0BDF80B0108E44E0020B9
:10448000581201088944000880B582B000AF7860F6
:104490000B46FB70FB781946034804F0EDFD00BFA6
:1044A0000837BD4680BD00BFAC45002080B584B054
:1044B00002AF786039607B68002B03D1002115487A
:1044C00001F016F878683B68DA683B681B6900936E
:1044D0001346114A114905F073F97B6820337A6855
:1044E0000921184605F0CEF93B685A687B68DA6105
:1044F0003B689A687B689A613B681A687B685A6176
:104500007B682033184605F0F5F900BF0837BD4633
:1045100080BD00BF58120108D9450008A545000814
:1045200080B588B002AFFFF753FF02230093022348
:1045300004220D490D4804F064FEFFF76FFF0C4B99
:104540007B600C4B1B68BB600B4BFB600B4B3B61F8
:10455000064B7B613B1D19460948FFF7A7FF00BFCB
:104560001837BD4680BD00BF8C4500209045002017
:10457000D9450008E44E0020AC45002088450020C5
:104580005845002080B582B000AF0346FB71FB792F
:104590001946034805F02EF900BF0837BD4680BD17
:1045A0005845002080B582B000AF786039607B68E4
:1045B000002B03D10721074800F09AFF7B682033C6
:1045C0000A220A21184605F07FF900BF0837BD46C8
:1045D00080BD00BF5812010880B582B000AF78607E
:1045E00039607B68002B03D103210D4800F080FF68
:1045F0003B68002B03D10421094800F079FF3B6898
:104600001B88092B06D1074B1B68184603F0DDF801
:10461000012300E0022318460837BD4680BD00BFD5
:1046200058120108E44E002080B582B000AF0B485C
:10463000FFF7AEFE0346002B0BD00848FFF7BBFE8A
:104640000346FB71064B1B68FA791146184603F0C6
:1046500099F800BF0837BD4680BD00BF0014014077
:10466000E44E002080B500AFFFF7DEFF024804F003
:1046700098FD00BF80BD00BFAC45002080B586B06E
:1046800002AF78603960114BFB6031230093104B0F
:10469000FA681049104804F04FFD01F079FA7B6880
:1046A000012283F83020786800F01EFC786800F062
:1046B000FFFB786800F00DFB7B682033184605F09F
:1046C00019F900BF1037BD4680BD00BF140C0108AA
:1046D0001C0C0108540C0108AC45002080B584B0C6
:1046E00000AF786039607B685B69FB607B685B6901
:1046F0003968786898470346FB72FB7A002B08D12B
:10470000FB680649786898477B685B690449786864
:10471000984700BF1037BD4680BD00BF801201081A
:104720006C12010880B586B002AF786039607B6892
:10473000002B03D10021234800F0DAFE78683B68A3
:104740005A683B689B68009313461F4A1F4905F04F
:1047500037F87B6820337A680A21184605F092F80A
:104760003B681A687B685A617B68002283F83020B6
:104770007B68002283F844207B68002283F847206E
:104780007B68002283F848200023FB600EE03A6833
:10479000FB6802339B0013445A687968FB680C334A
:1047A0009B000B445A60FB680133FB60FB68032BE2
:1047B000EDD97B682033184605F09CF800BF103710
:1047C000BD4680BD60120108DD4600087D46000838
:1047D000B0B58AB002AF12230093022324220B4902
:1047E0000B4804F00EFD0B4B3C1D1D460FCD0FC4B6
:1047F00095E8070084E807003B1D19460648FFF7C7
:1048000091FF00BF2037BD46B0BD00BF4C57002010
:1048100070570020680C0108E856002080B582B06F
:1048200000AF0346FB71FB791946034804F0E2FF31
:1048300000BF0837BD4680BDE856002080B586B071
:1048400002AF786039603B681B88012B02D00B2BCC
:1048500018D04BE0284BFB606C230093274BFA6881
:104860002749284804F068FC7B682033184605F087
:1048700041F8786800F01CFB786800F02AFA7B6841
:1048800001229A613B689B78042B2DD17B6893F8B9
:104890003030002B09D10121786800F03AFD7868AA
:1048A00000F022FB786800F003FB7B6893F8463049
:1048B000184600F0F3FD03467B817B68B3F94A306C
:1048C000B7F90A209A4203DD7B680F4A5A6102E079
:1048D0007B680E4A5A617B68203364226421184643
:1048E00004F0F2FF002302E0022300E00123184657
:1048F0001037BD4680BD00BF140C01081C0C010818
:10490000840C0108AC45002011490008C149000889
:1049100080B586B002AF786039603B681B880B2B8E
:1049200032D00B2B3BDC012B02D00A2B16D036E009
:104930001D4BBB60952300931C4BBA681C491D4856
:1049400004F0FAFB7B680022DA610021786800F04D
:104950001BFA786800F05CF9012321E07B6893F88A
:104960004630184600F09AFD0346FB817B68B3F998
:104970004A30B7F90E209A4201DD012310E07B682E
:104980000D4A5A6100230BE03B689B78052B04D14C
:104990007B680A4A5A61002302E0022300E00223F6
:1049A00018461037BD4680BD140C01081C0C0108C8
:1049B000C00C0108AC450020C14900083D48000872
:1049C00080B586B002AF786039603B681B880B2BDE
:1049D00046D00B2B4FDC012B02D00A2B15D04AE01E
:1049E000274BBB60BA230093264BBA682649274859
:1049F00004F0A2FB7B680022DA61786800F058FAC4
:104A0000786800F066F9012336E07B6893F8463059
:104A1000184600F043FD0346FB817B68B3F94A303A
:104A2000B7F90E209A4204DD7B68194A5A610023C7
:104A300022E07B68DB695A1C7B68DA617B68DB6992
:104A40001D2B08D87B68B3F94A301A46B7F90E30E7
:104A5000D31A0A2B04DD7B680E4A5A6100230BE04F
:104A60003B689B78052B04D17B680B4A5A61002375
:104A700002E0022300E0022318461037BD4680BD45
:104A8000140C01081C0C0108FC0C0108AC450020AA
:104A9000114900089D4A00083D48000880B586B0CD
:104AA00002AF786039603B681B880B2B2ED00B2B34
:104AB00037DC012B02D00A2B12D032E01B4BBB603B
:104AC000E02300931A4BBA681A491B4804F034FBE0
:104AD0007B680022DA61786800F0CDF8012321E0DC
:104AE0007B6893F84630184600F0D8FC0346FB81FB
:104AF0007B68B3F94A30B7F90E209A4201DA0123F4
:104B000010E07B680D4A5A6100230BE03B689B78FC
:104B1000052B04D17B680A4A5A61002302E0022374
:104B200000E0022318461037BD4680BD140C010872
:104B30001C0C0108400D0108AC450020454B000845
:104B40003D48000880B586B002AF786039603B68A8
:104B50001B880B2B3DD00B2B46DC012B02D00A2BE4
:104B600013D041E0234BBB604FF481730093224B81
:104B7000BA682249224804F0DFFA786800F098F910
:104B8000786800F0A6F801232FE07B6893F84630A0
:104B9000184600F083FC0346FB817B68B3F94A307A
:104BA000B7F90E209A4204DA7B68164A5A6100234C
:104BB0001BE07B68DB695A1C7B68DA617B68DB6918
:104BC0001D2B04D97B68104A5A6100230DE0012394
:104BD0000BE03B689B78052B04D17B680B4A5A613C
:104BE000002302E0022300E0022318461037BD46EE
:104BF00080BD00BF140C01081C0C0108840D0108C5
:104C0000AC4500209D4A0008114900083D480008B5
:104C100080B584B000AF78607B6893F84730BB7391
:104C20000023FB731FE0BA7BFB7B42FA03F303F024
:104C30000103002B0AD0FB7B7A680C339B001344E2
:104C40005B680121184601F0E3FF09E0FB7B7A680D
:104C50000C339B0013445B680021184601F0D8FF19
:104C6000FB7B0133FB73FB7B032BDCD900BF00BF55
:104C70001037BD4680BD80B584B000AF78607B68DA
:104C800093F84930BB737B6893F848307B730023FB
:104C9000FB7316E07A7BFB7B42FA03F303F001031C
:104CA000002B07D0FB7BBA7B92B21146184600F06E
:104CB00063FC03E0FB7B184600F0A0FCFB7B0133A8
:104CC000FB73FB7B032BE5D900BF00BF1037BD464C
:104CD00080BD80B584B000AF78600023FB7306E030
:104CE000FB7B184600F08AFCFB7B0133FB73FB7BEC
:104CF000032BF5D900BF00BF1037BD4680BD80B47F
:104D000083B000AF78607B68B3F84C3018460C373E
:104D1000BD465DF8047B704780B588B000AF786011
:104D200007F10C0300221A605A609A60DA601A8256
:104D30000B23BB810423BB737B6807F10C02114674
:104D4000184604F081FD002318462037BD4680BD7B
:104D500080B588B000AF786007F10C0300221A60BC
:104D60005A609A60DA601A820B23BB810523BB73F9
:104D70007B6807F10C021146184604F065FD00231C
:104D800018462037BD4680BD2DE9F04F8DB000AFED
:104D9000F861B961FB6993F8473087F82B30FB69FC
:104DA000B3F84C303B850023FB6278E097F82B206A
:104DB000FB6A42FA03F303F00103002B6CD0FA699B
:104DC000FB6A0C339B0013445B689B7E87F827309B
:104DD00097F82730DBB203F00103002B08D1FA6902
:104DE000FB6A0C339B0013445B68184601F075FFA7
:104DF000FA69FB6A0C339B0013445B689B7E87F85F
:104E00002730FA69FB6A0C339B0013445B687B60B4
:104E1000BB69DEB23B8D00229A46934652465B4602
:104E20004FF000004FF00001590141EAD2615001FA
:104E300002460B46B2EB0A0463EB0B054FF000028F
:104E40004FF000036B0243EAD453620214461D463E
:104E500014EB0A0845EB0B094FF000024FF000037A
:104E60004FEA891343EA98634FEA8812B2EB0801CC
:104E7000B96063EB0902FA60D7E90201024612EB5E
:104E80000A023A610A4642EB0B027A61D7E904232F
:104E90003146786802F000F8FB6A0133FB62FB6A76
:104EA000032B83D900BF00BF3437BD46BDE8F08F68
:104EB00080B584B000AF78600023FB600CE07A68B6
:104EC000FB680C339B0013445B680021184601F01B
:104ED0009FFEFB680133FB60FB68032BEFD900BF2B
:104EE00000BF1037BD4680BD80B584B000AF78608C
:104EF0000023FB600BE07A68FB680C339B001344D3
:104F00005B68184601F0E9FEFB680133FB60FB6853
:104F1000032BF0D900BF00BF1037BD4680BD80B560
:104F200084B000AF786039603B68032B01D9062359
:104F300011E07A683B680C339B0013445B681846A9
:104F400001F0CBFE0346FB7397F90F30002B01D025
:104F5000012300E0002318461037BD4680BD80B510
:104F600086B000AFF860B9601346FB71BB68032BD5
:104F700001D9062313E0FA68BB680C339B00134485
:104F80005B68FA791146184601F042FE0346FB754C
:104F900097F91730002B01D0012300E000231846B9
:104FA0001837BD4680BD000080B483B000AF786084
:104FB0007B685B69054A93420CBF01230023DBB287
:104FC00018460C37BD465DF8047B70473D48000825
:104FD00080B483B000AF78600B46FB70FB78032B86
:104FE00001D906230FE07B6893F847305AB2FB786B
:104FF000012101FA03F35BB213435BB2DAB27B68BF
:1050000083F84720002318460C37BD465DF8047B23
:10501000704780B483B000AF78600B46FB70FB78BC
:10502000032B01D9062311E07B6893F847305AB26D
:10503000FB78012101FA03F35BB2DB435BB213405F
:105040005BB2DAB27B6883F84720002318460C373E
:10505000BD465DF8047B704780B483B000AF7860D4
:105060007B6893F8473018460C37BD465DF8047BE3
:10507000704780B483B000AF78600B467B807B883C
:10508000B3F5FA7F04D37B8840F6B832934201D956
:10509000062304E07B687A88A3F84C200023184696
:1050A0000C37BD465DF8047B704780B483B000AF19
:1050B00078600B46FB70FB78642B01D9062304E073
:1050C0007B68FA7883F84920002318460C37BD46E0
:1050D0005DF8047B704780B483B000AF78607B6874
:1050E00093F8493018460C37BD465DF8047B70478D
:1050F00080B483B000AF78600B46FB70FB78032B65
:1051000001D906230FE07B6893F848305AB2FB7848
:10511000012101FA03F35BB213435BB2DAB27B689D
:1051200083F84820002318460C37BD465DF8047B01
:10513000704780B483B000AF78600B46FB70FB789B
:10514000032B01D9062311E07B6893F848305AB24B
:10515000FB78012101FA03F35BB2DB435BB213403E
:105160005BB2DAB27B6883F84820002318460C371C
:10517000BD465DF8047B704780B483B000AF7860B3
:105180007B6893F8483018460C37BD465DF8047BC1
:10519000704780B483B000AF78600B46FB70FB783B
:1051A000072B01D9062304E07B68FA7883F84620B0
:1051B000002318460C37BD465DF8047B704780B469
:1051C00083B000AF78600B467B807B687A88A3F859
:1051D0004A2000BF0C37BD465DF8047B704780B4A1
:1051E00083B000AF78607B68B3F94A3018460C375B
:1051F000BD465DF8047B704780B483B000AF786033
:105200007B6893F8463018460C37BD465DF8047B42
:1052100070472DE9F04F8BB000AFF861B9617A614A
:105220007B82BB69032B01D906236DE0FA69BB6958
:105230000C339B0013445B689B7E87F8273097F8FC
:10524000273003F00103002B0DD0FA69BB690C3342
:105250009B0013445B68184601F03FFD0346002B9A
:1052600001D0012350E0FA69BB690C339B00134461
:105270005E687B695FFA83FC7B8A00229A469346CC
:1052800052465B464FF000004FF00001590141EAE1
:10529000D261500102460B46B2EB0A0463EB0B05E8
:1052A0004FF000024FF000036B0243EAD453620256
:1052B00014461D4614EB0A0845EB0B094FF000029B
:1052C0004FF000034FEA891343EA98634FEA8812CC
:1052D000B2EB0801396063EB09037B60D7E9001288
:1052E0000B4613EB0A03BB60134643EB0B03FB6057
:1052F000D7E902236146304601F0CEFD0346002B7C
:1053000001D0012300E0002318462C37BD46BDE83C
:10531000F08F80B582B000AF786039603B68002BB9
:1053200006D000F035FC7B68012283F8302005E0D0
:1053300000F03AFC7B68002283F8302000BF083779
:10534000BD4680BD80B483B000AF78607B6893F8C1
:105350003030002B14BF01230023DBB218460C377A
:10536000BD465DF8047B704780B582B000AF7860C1
:1053700039607B6814330A220A21184604F0A4FA23
:1053800000BF0837BD4680BD80B584B002AF7860ED
:1053900039607B68002B03D100210E4800F0A8F88B
:1053A00078683B685A683B689B68009313460A4AD2
:1053B0000A4904F005FA7B6814337A680D2118460F
:1053C00004F060FA3B681A687B685A6200BF0837CD
:1053D000BD4680BD94120108455400086953000879
:1053E00080B586B002AF0223009304230822094946
:1053F000094803F006FF094A3B1D07CA83E8070076
:105400003B1D19460648FFF7BFFF00BF1037BD46DA
:1054100080BD00BFC8570020D0570020C40D010830
:105420008C57002080B582B000AF0346FB71FB793A
:105430001946034804F0DEF900BF0837BD4680BDB9
:105440008C57002090B585B000AF786039603B681C
:105450001B880C2B02D00D2B17D01AE00023FB73F6
:105460000EE0FB7BFC7B184600F04CFA0346194625
:105470007B6804F1140223F81210FB7B0133FB73E9
:10548000FB7B072BEDD9012304E000F02DFA01236B
:1054900000E0022318461437BD4690BD80B483B0A7
:1054A00000AF7860054A7B68143332F91330184630
:1054B0000C37BD465DF8047B704700BF8C57002059
:1054C00080B400AF054B1B68044A43F0020313602D
:1054D00000BFBD465DF8047B704700BF10E000E0F0
:1054E00080B400AF62B600BFBD465DF8047B704774
:1054F00080B483B000AF7860396072B600BF0C37FB
:10550000BD465DF8047B704780B483B000AF78601F
:1055100039607B683A685A6300BF0C37BD465DF856
:10552000047B704780B483B000AF786039607B68DB
:105530003A689A6300BF0C37BD465DF8047B70473C
:1055400080B483B000AF786039607B683A68DA6312
:1055500000BF0C37BD465DF8047B704780B483B054
:1055600000AF786039607B683A681A6400BF0C3716
:10557000BD465DF8047B704780B584B000AF7860AD
:105580000B467B807B88642B01D964237B807B88DE
:105590001A465201D21A920013449B00FB817B6889
:1055A000032B23D801A252F823F000BFBD550008F9
:1055B000C9550008D5550008E1550008FB89194672
:1055C0000D48FFF7A1FF12E0FB8919460A48FFF7D3
:1055D000A9FF0CE0FB8919460748FFF7B1FF06E079
:1055E000FB8919460448FFF7B9FF00E000BF00BF80
:1055F0001037BD4680BD00BF0008004080B582B0B6
:1056000000AF78607B68032B1ED801A252F823F00C
:10561000215600082B560008355600083F56000852
:1056200000210C48FFF770FF0FE000210948FFF749
:1056300079FF0AE000210748FFF782FF05E000211B
:105640000448FFF78BFF00E000BF00BF0837BD46EE
:1056500080BD00BF0008004080B483B000AF786018
:105660007B681B6843F040027B681A6000BF0C3700
:10567000BD465DF8047B704780B483B000AF7860AE
:105680007B681B6823F040027B681A6000BF0C3700
:10569000BD465DF8047B704780B483B000AF78608E
:1056A00039607B681B6823F001023B681A437B6802
:1056B0001A6000BF0C37BD465DF8047B704780B4AC
:1056C00083B000AF786039607B681B6823F002020A
:1056D0003B681A437B681A6000BF0C37BD465DF813
:1056E000047B704780B582B000AF0346FB711E4853
:1056F000FFF7C2FFFB79032B2ED801A252F823F04B
:10570000115700082357000835570008475700086D
:1057100000211548FFF7D3FF00211348FFF7BCFF16
:105720001AE000211048FFF7CAFF01210E48FFF7D9
:10573000B3FF11E002210C48FFF7C1FF00210A4826
:10574000FFF7AAFF08E002210748FFF7B8FF012191
:105750000548FFF7A1FF00BF0348FFF77DFF00BF2B
:105760000837BD4680BD00BF0034014080B582B01F
:1057700002AF0020FFF7B6FF4FF480530193104BA8
:10578000009304230E4A0F490F4801F06DFE0120DB
:10579000FFF7A8FF062300934FF480630B4A0949E3
:1057A0000B4800F0E0FA012300934FF40043074A4E
:1057B0000449084800F0D7FA00BFBD4680BD00BFCD
:1057C0000004024000340140EC5700200010024069
:1057D000045800202458002080B582B000AF7860C3
:1057E0007B68DBB21946034800F01EFB00BF083798
:1057F000BD4680BD0458002080B500AF024800F0CF
:1058000083FB00BF80BD00BF0458002080B582B07C
:1058100000AF78607B68DBB21946034800F004FBF8
:1058200000BF0837BD4680BD2458002080B500AFBA
:10583000024800F069FB00BF80BD00BF2458002073
:1058400080B582B000AF78607B68642B01D9642397
:105850007B607A6813461B029B1A074AA2FB03234C
:105860005B09DBB21A460021044801F0E9FD00BFE4
:105870000837BD4680BD00BF1F85EB51EC570020A7
:1058800080B582B000AF78607B68642B01D9642357
:105890007B607A6813461B029B1A074AA2FB03230C
:1058A0005B09DBB21A460021044801F0C9FD00BFC4
:1058B0000837BD4680BD00BF1F85EB51EC57002067
:1058C00080B582B000AF786039607B68002B03D16F
:1058D0003868FFF7B5FF02E03868FFF7D1FF00BF77
:1058E0000837BD4680BD000080B500AF08220349DF
:1058F000034804F0F5F800BF80BD00BF4458002005
:105900004443002080B582B000AF7860054A7B68D0
:1059100032F81330184601F061FE03461846083786
:10592000BD4680BD4458002080B584B000AF78608B
:105930007B68254A934242D1244B1B68002B11D02F
:105940000023FB600AE0224AFB6832F81310214A68
:10595000FB6822F81310FB680133FB60FB68072B20
:10596000F1D91BE00023BB6015E0194ABB6832F88F
:1059700013301946174ABB6832F813300B44002B1A
:1059800000DA01335B1099B2124ABB6822F8131097
:10599000BB680133BB60BB68072BE6D90E4B1B68A5
:1059A000092B05D80C4B1B6801330B4A136006E02A
:1059B000094B00221A600949094803F045FF00BF5E
:1059C0001037BD4680BD00BF444300200C000020BE
:1059D000445800205458002064580020A8120108A0
:1059E0008C57002080B483B000AF7860074B5A69B1
:1059F0007B6813407A689A420CBF01230023DBB214
:105A000018460C37BD465DF8047B7047003C0140EA
:105A100080B483B000AF7860044A7B68536100BFF4
:105A20000C37BD465DF8047B704700BF003C014069
:105A300080B485B000AF78600B467B807B680C3308
:105A4000FB60FB687A881A8000BF1437BD465DF89A
:105A5000047B704780B500AF104B4FF400729A6121
:105A60000E4B4FF080629A6100BF00BF00BF00BFC5
:105A70000A4B4FF000729A614AF6AA210848FFF7D4
:105A8000D7FF064B4FF480629A61064B1B69054AAB
:105A900023F00103136100BF80BD00BF000C024072
:105AA000003800400000014080B500AF4FF40060B6
:105AB000FFF798FF0346002B03D04FF40060FFF779
:105AC000A7FF00BF80BD000080B500AF024800F016
:105AD00005FC00BF80BD00BF1000002080B584B071
